{
  "contractName": "Land",
  "abi": [
    {
      "inputs": [],
      "stateMutability": "nonpayable",
      "type": "constructor"
    },
    {
      "inputs": [
        {
          "internalType": "address",
          "name": "",
          "type": "address"
        }
      ],
      "name": "InspectorMapping",
      "outputs": [
        {
          "internalType": "uint256",
          "name": "id",
          "type": "uint256"
        },
        {
          "internalType": "address",
          "name": "_addr",
          "type": "address"
        },
        {
          "internalType": "string",
          "name": "name",
          "type": "string"
        },
        {
          "internalType": "uint256",
          "name": "age",
          "type": "uint256"
        },
        {
          "internalType": "string",
          "name": "designation",
          "type": "string"
        },
        {
          "internalType": "string",
          "name": "city",
          "type": "string"
        },
        {
          "internalType": "uint256",
          "name": "energyavailable",
          "type": "uint256"
        }
      ],
      "stateMutability": "view",
      "type": "function",
      "constant": true
    },
    {
      "inputs": [
        {
          "internalType": "uint256",
          "name": "",
          "type": "uint256"
        }
      ],
      "name": "LandRequestMapping",
      "outputs": [
        {
          "internalType": "uint256",
          "name": "reqId",
          "type": "uint256"
        },
        {
          "internalType": "address payable",
          "name": "sellerId",
          "type": "address"
        },
        {
          "internalType": "address payable",
          "name": "buyerId",
          "type": "address"
        },
        {
          "internalType": "uint256",
          "name": "landId",
          "type": "uint256"
        },
        {
          "internalType": "enum Land.reqStatus",
          "name": "requestStatus",
          "type": "uint8"
        },
        {
          "internalType": "bool",
          "name": "isPaymentDone",
          "type": "bool"
        }
      ],
      "stateMutability": "view",
      "type": "function",
      "constant": true
    },
    {
      "inputs": [
        {
          "internalType": "address",
          "name": "",
          "type": "address"
        }
      ],
      "name": "UserMapping",
      "outputs": [
        {
          "internalType": "address",
          "name": "id",
          "type": "address"
        },
        {
          "internalType": "string",
          "name": "name",
          "type": "string"
        },
        {
          "internalType": "uint256",
          "name": "age",
          "type": "uint256"
        },
        {
          "internalType": "string",
          "name": "city",
          "type": "string"
        },
        {
          "internalType": "string",
          "name": "email",
          "type": "string"
        },
        {
          "internalType": "bool",
          "name": "isUserVerified",
          "type": "bool"
        }
      ],
      "stateMutability": "view",
      "type": "function",
      "constant": true
    },
    {
      "inputs": [],
      "name": "documentId",
      "outputs": [
        {
          "internalType": "uint256",
          "name": "",
          "type": "uint256"
        }
      ],
      "stateMutability": "view",
      "type": "function",
      "constant": true
    },
    {
      "inputs": [
        {
          "internalType": "uint256",
          "name": "",
          "type": "uint256"
        }
      ],
      "name": "lands",
      "outputs": [
        {
          "internalType": "uint256",
          "name": "id",
          "type": "uint256"
        },
        {
          "internalType": "uint256",
          "name": "area",
          "type": "uint256"
        },
        {
          "internalType": "string",
          "name": "landAddress",
          "type": "string"
        },
        {
          "internalType": "uint256",
          "name": "landPrice",
          "type": "uint256"
        },
        {
          "internalType": "string",
          "name": "allLatitudeLongitude",
          "type": "string"
        },
        {
          "internalType": "string",
          "name": "physicalSurveyNumber",
          "type": "string"
        },
        {
          "internalType": "bool",
          "name": "isforSell",
          "type": "bool"
        },
        {
          "internalType": "address payable",
          "name": "ownerAddress",
          "type": "address"
        },
        {
          "internalType": "bool",
          "name": "isLandVerified",
          "type": "bool"
        }
      ],
      "stateMutability": "view",
      "type": "function",
      "constant": true
    },
    {
      "inputs": [],
      "name": "landsCount",
      "outputs": [
        {
          "internalType": "uint256",
          "name": "",
          "type": "uint256"
        }
      ],
      "stateMutability": "view",
      "type": "function",
      "constant": true
    },
    {
      "inputs": [],
      "name": "userCount",
      "outputs": [
        {
          "internalType": "uint256",
          "name": "",
          "type": "uint256"
        }
      ],
      "stateMutability": "view",
      "type": "function",
      "constant": true
    },
    {
      "inputs": [
        {
          "internalType": "address",
          "name": "_addr",
          "type": "address"
        }
      ],
      "name": "isContractOwner",
      "outputs": [
        {
          "internalType": "bool",
          "name": "",
          "type": "bool"
        }
      ],
      "stateMutability": "view",
      "type": "function",
      "constant": true
    },
    {
      "inputs": [
        {
          "internalType": "address",
          "name": "_addr",
          "type": "address"
        }
      ],
      "name": "changeContractOwner",
      "outputs": [],
      "stateMutability": "nonpayable",
      "type": "function"
    },
    {
      "inputs": [
        {
          "internalType": "address",
          "name": "_addr",
          "type": "address"
        },
        {
          "internalType": "string",
          "name": "_name",
          "type": "string"
        },
        {
          "internalType": "uint256",
          "name": "_age",
          "type": "uint256"
        },
        {
          "internalType": "string",
          "name": "_designation",
          "type": "string"
        },
        {
          "internalType": "string",
          "name": "_city",
          "type": "string"
        },
        {
          "internalType": "uint256",
          "name": "_energyavailable",
          "type": "uint256"
        }
      ],
      "name": "addLandInspector",
      "outputs": [
        {
          "internalType": "bool",
          "name": "",
          "type": "bool"
        }
      ],
      "stateMutability": "nonpayable",
      "type": "function"
    },
    {
      "inputs": [],
      "name": "ReturnAllLandIncpectorList",
      "outputs": [
        {
          "internalType": "address[]",
          "name": "",
          "type": "address[]"
        }
      ],
      "stateMutability": "view",
      "type": "function",
      "constant": true
    },
    {
      "inputs": [
        {
          "internalType": "address",
          "name": "_addr",
          "type": "address"
        }
      ],
      "name": "removeLandInspector",
      "outputs": [],
      "stateMutability": "nonpayable",
      "type": "function"
    },
    {
      "inputs": [
        {
          "internalType": "address",
          "name": "_id",
          "type": "address"
        }
      ],
      "name": "isLandInspector",
      "outputs": [
        {
          "internalType": "bool",
          "name": "",
          "type": "bool"
        }
      ],
      "stateMutability": "view",
      "type": "function",
      "constant": true
    },
    {
      "inputs": [
        {
          "internalType": "address",
          "name": "_addr",
          "type": "address"
        }
      ],
      "name": "isUserRegistered",
      "outputs": [
        {
          "internalType": "bool",
          "name": "",
          "type": "bool"
        }
      ],
      "stateMutability": "view",
      "type": "function",
      "constant": true
    },
    {
      "inputs": [
        {
          "internalType": "string",
          "name": "_name",
          "type": "string"
        },
        {
          "internalType": "uint256",
          "name": "_age",
          "type": "uint256"
        },
        {
          "internalType": "string",
          "name": "_city",
          "type": "string"
        },
        {
          "internalType": "string",
          "name": "_email",
          "type": "string"
        }
      ],
      "name": "registerUser",
      "outputs": [],
      "stateMutability": "nonpayable",
      "type": "function"
    },
    {
      "inputs": [
        {
          "internalType": "address",
          "name": "_userId",
          "type": "address"
        }
      ],
      "name": "verifyUser",
      "outputs": [],
      "stateMutability": "nonpayable",
      "type": "function"
    },
    {
      "inputs": [
        {
          "internalType": "address",
          "name": "id",
          "type": "address"
        }
      ],
      "name": "isUserVerified",
      "outputs": [
        {
          "internalType": "bool",
          "name": "",
          "type": "bool"
        }
      ],
      "stateMutability": "view",
      "type": "function",
      "constant": true
    },
    {
      "inputs": [],
      "name": "ReturnAllUserList",
      "outputs": [
        {
          "internalType": "address[]",
          "name": "",
          "type": "address[]"
        }
      ],
      "stateMutability": "view",
      "type": "function",
      "constant": true
    },
    {
      "inputs": [
        {
          "internalType": "uint256",
          "name": "_area",
          "type": "uint256"
        },
        {
          "internalType": "string",
          "name": "_address",
          "type": "string"
        },
        {
          "internalType": "uint256",
          "name": "landPrice",
          "type": "uint256"
        },
        {
          "internalType": "string",
          "name": "_allLatiLongi",
          "type": "string"
        },
        {
          "internalType": "string",
          "name": "_surveyNum",
          "type": "string"
        }
      ],
      "name": "addLand",
      "outputs": [],
      "stateMutability": "nonpayable",
      "type": "function"
    },
    {
      "inputs": [],
      "name": "ReturnAllLandList",
      "outputs": [
        {
          "internalType": "uint256[]",
          "name": "",
          "type": "uint256[]"
        }
      ],
      "stateMutability": "view",
      "type": "function",
      "constant": true
    },
    {
      "inputs": [
        {
          "internalType": "uint256",
          "name": "_id",
          "type": "uint256"
        }
      ],
      "name": "verifyLand",
      "outputs": [],
      "stateMutability": "nonpayable",
      "type": "function"
    },
    {
      "inputs": [
        {
          "internalType": "uint256",
          "name": "id",
          "type": "uint256"
        }
      ],
      "name": "isLandVerified",
      "outputs": [
        {
          "internalType": "bool",
          "name": "",
          "type": "bool"
        }
      ],
      "stateMutability": "view",
      "type": "function",
      "constant": true
    },
    {
      "inputs": [
        {
          "internalType": "address",
          "name": "id",
          "type": "address"
        }
      ],
      "name": "myAllLands",
      "outputs": [
        {
          "internalType": "uint256[]",
          "name": "",
          "type": "uint256[]"
        }
      ],
      "stateMutability": "view",
      "type": "function",
      "constant": true
    },
    {
      "inputs": [
        {
          "internalType": "uint256",
          "name": "id",
          "type": "uint256"
        }
      ],
      "name": "makeItforSell",
      "outputs": [],
      "stateMutability": "nonpayable",
      "type": "function"
    },
    {
      "inputs": [
        {
          "internalType": "uint256",
          "name": "_landId",
          "type": "uint256"
        }
      ],
      "name": "requestforBuy",
      "outputs": [],
      "stateMutability": "nonpayable",
      "type": "function"
    },
    {
      "inputs": [],
      "name": "myReceivedLandRequests",
      "outputs": [
        {
          "internalType": "uint256[]",
          "name": "",
          "type": "uint256[]"
        }
      ],
      "stateMutability": "view",
      "type": "function",
      "constant": true
    },
    {
      "inputs": [],
      "name": "mySentLandRequests",
      "outputs": [
        {
          "internalType": "uint256[]",
          "name": "",
          "type": "uint256[]"
        }
      ],
      "stateMutability": "view",
      "type": "function",
      "constant": true
    },
    {
      "inputs": [
        {
          "internalType": "uint256",
          "name": "_requestId",
          "type": "uint256"
        }
      ],
      "name": "acceptRequest",
      "outputs": [],
      "stateMutability": "nonpayable",
      "type": "function"
    },
    {
      "inputs": [
        {
          "internalType": "uint256",
          "name": "_requestId",
          "type": "uint256"
        }
      ],
      "name": "rejectRequest",
      "outputs": [],
      "stateMutability": "nonpayable",
      "type": "function"
    },
    {
      "inputs": [
        {
          "internalType": "uint256",
          "name": "id",
          "type": "uint256"
        }
      ],
      "name": "requesteStatus",
      "outputs": [
        {
          "internalType": "bool",
          "name": "",
          "type": "bool"
        }
      ],
      "stateMutability": "view",
      "type": "function",
      "constant": true
    },
    {
      "inputs": [
        {
          "internalType": "uint256",
          "name": "id",
          "type": "uint256"
        }
      ],
      "name": "landPrice",
      "outputs": [
        {
          "internalType": "uint256",
          "name": "",
          "type": "uint256"
        }
      ],
      "stateMutability": "view",
      "type": "function",
      "constant": true
    },
    {
      "inputs": [
        {
          "internalType": "uint256",
          "name": "_requestId",
          "type": "uint256"
        }
      ],
      "name": "makePayment",
      "outputs": [],
      "stateMutability": "payable",
      "type": "function",
      "payable": true
    },
    {
      "inputs": [],
      "name": "returnPaymentDoneList",
      "outputs": [
        {
          "internalType": "uint256[]",
          "name": "",
          "type": "uint256[]"
        }
      ],
      "stateMutability": "view",
      "type": "function",
      "constant": true
    },
    {
      "inputs": [
        {
          "internalType": "address payable",
          "name": "_reveiver",
          "type": "address"
        }
      ],
      "name": "makePaymentTestFun",
      "outputs": [],
      "stateMutability": "payable",
      "type": "function",
      "payable": true
    }
  ],
  "bytecode": "0x608060405234801561001057600080fd5b50336000806101000a81548173ffffffffffffffffffffffffffffffffffffffff021916908373ffffffffffffffffffffffffffffffffffffffff16021790555061398b806100606000396000f3fe6080604052600436106101f95760003560e01c8063995a8d961161010d578063d251839b116100a0578063d8513de41161006f578063d8513de414611404578063de11768814611455578063e165af87146114bc578063e261f1e514611523578063f9c43bdf146116f3576101f9565b8063d251839b1461113f578063d3b368c0146111ab578063d61ff68c146111e6578063d72ca9ec146113b5576101f9565b8063b10a30ed116100dc578063b10a30ed14610db3578063b7bb80f914610e5e578063c26e11eb1461105e578063d196ebf214611099576101f9565b8063995a8d9614610c305780639c32e3b414610c74578063a846fc8f14610ce0578063ace417e014610d4c576101f9565b8063499701b211610190578063553a998d1161015f578063553a998d1461092357806364efa0021461098f5780636cbf6cf814610b635780637517e00f14610bb457806378f7c83f14610c05576101f9565b8063499701b2146107fd5780634ba1f098146108695780634d813120146108a45780635114cb52146108f5576101f9565b806323393d77116101cc57806323393d77146104fb5780632d7788db146105675780633ead67b5146105a2578063493c80f1146105f3576101f9565b806305b2a4de146101fe57806307973ccf1461043e578063163f7522146104695780631c9afd0f146104d0575b600080fd5b34801561020a57600080fd5b50610426600480360360c081101561022157600080fd5b81019080803573ffffffffffffffffffffffffffffffffffffffff1690602001909291908035906020019064010000000081111561025e57600080fd5b82018360208201111561027057600080fd5b8035906020019184600183028401116401000000008311171561029257600080fd5b91908080601f016020809104026020016040519081016040528093929190818152602001838380828437600081840152601f19601f82011690508083019250505050505050919291929080359060200190929190803590602001906401000000008111156102ff57600080fd5b82018360208201111561031157600080fd5b8035906020019184600183028401116401000000008311171561033357600080fd5b91908080601f016020809104026020016040519081016040528093929190818152602001838380828437600081840152601f19601f8201169050808301925050505050505091929192908035906020019064010000000081111561039657600080fd5b8201836020820111156103a857600080fd5b803590602001918460018302840111640100000000831117156103ca57600080fd5b91908080601f016020809104026020016040519081016040528093929190818152602001838380828437600081840152601f19601f8201169050808301925050505050505091929192908035906020019092919050505061172e565b60405180821515815260200191505060405180910390f35b34801561044a57600080fd5b50610453611a09565b6040518082815260200191505060405180910390f35b34801561047557600080fd5b506104b86004803603602081101561048c57600080fd5b81019080803573ffffffffffffffffffffffffffffffffffffffff169060200190929190505050611a0f565b60405180821515815260200191505060405180910390f35b3480156104dc57600080fd5b506104e5611a76565b6040518082815260200191505060405180910390f35b34801561050757600080fd5b50610510611a7c565b6040518080602001828103825283818151815260200191508051906020019060200280838360005b83811015610553578082015181840152602081019050610538565b505050509050019250505060405180910390f35b34801561057357600080fd5b506105a06004803603602081101561058a57600080fd5b8101908080359060200190929190505050611ae6565b005b3480156105ae57600080fd5b506105f1600480360360208110156105c557600080fd5b81019080803573ffffffffffffffffffffffffffffffffffffffff169060200190929190505050611b8f565b005b3480156105ff57600080fd5b506107fb600480360360a081101561061657600080fd5b81019080803590602001909291908035906020019064010000000081111561063d57600080fd5b82018360208201111561064f57600080fd5b8035906020019184600183028401116401000000008311171561067157600080fd5b91908080601f016020809104026020016040519081016040528093929190818152602001838380828437600081840152601f19601f82011690508083019250505050505050919291929080359060200190929190803590602001906401000000008111156106de57600080fd5b8201836020820111156106f057600080fd5b8035906020019184600183028401116401000000008311171561071257600080fd5b91908080601f016020809104026020016040519081016040528093929190818152602001838380828437600081840152601f19601f8201169050808301925050505050505091929192908035906020019064010000000081111561077557600080fd5b82018360208201111561078757600080fd5b803590602001918460018302840111640100000000831117156107a957600080fd5b91908080601f016020809104026020016040519081016040528093929190818152602001838380828437600081840152601f19601f820116905080830192505050505050509192919290505050611c93565b005b34801561080957600080fd5b50610812611ed6565b6040518080602001828103825283818151815260200191508051906020019060200280838360005b8381101561085557808201518184015260208101905061083a565b505050509050019250505060405180910390f35b34801561087557600080fd5b506108a26004803603602081101561088c57600080fd5b8101908080359060200190929190505050611f6b565b005b3480156108b057600080fd5b506108f3600480360360208110156108c757600080fd5b81019080803573ffffffffffffffffffffffffffffffffffffffff169060200190929190505050612014565b005b6109216004803603602081101561090b57600080fd5b8101908080359060200190929190505050612084565b005b34801561092f57600080fd5b5061093861226f565b6040518080602001828103825283818151815260200191508051906020019060200280838360005b8381101561097b578082015181840152602081019050610960565b505050509050019250505060405180910390f35b34801561099b57600080fd5b506109de600480360360208110156109b257600080fd5b81019080803573ffffffffffffffffffffffffffffffffffffffff16906020019092919050505061230f565b604051808881526020018773ffffffffffffffffffffffffffffffffffffffff168152602001806020018681526020018060200180602001858152602001848103845289818151815260200191508051906020019080838360005b83811015610a54578082015181840152602081019050610a39565b50505050905090810190601f168015610a815780820380516001836020036101000a031916815260200191505b50848103835287818151815260200191508051906020019080838360005b83811015610aba578082015181840152602081019050610a9f565b50505050905090810190601f168015610ae75780820380516001836020036101000a031916815260200191505b50848103825286818151815260200191508051906020019080838360005b83811015610b20578082015181840152602081019050610b05565b50505050905090810190601f168015610b4d5780820380516001836020036101000a031916815260200191505b509a505050505050505050505060405180910390f35b348015610b6f57600080fd5b50610b9c60048036036020811015610b8657600080fd5b8101908080359060200190929190505050612539565b60405180821515815260200191505060405180910390f35b348015610bc057600080fd5b50610c0360048036036020811015610bd757600080fd5b81019080803573ffffffffffffffffffffffffffffffffffffffff169060200190929190505050612566565b005b348015610c1157600080fd5b50610c1a6128ff565b6040518082815260200191505060405180910390f35b610c7260048036036020811015610c4657600080fd5b81019080803573ffffffffffffffffffffffffffffffffffffffff169060200190929190505050612905565b005b348015610c8057600080fd5b50610c8961294f565b6040518080602001828103825283818151815260200191508051906020019060200280838360005b83811015610ccc578082015181840152602081019050610cb1565b505050509050019250505060405180910390f35b348015610cec57600080fd5b50610cf56129e4565b6040518080602001828103825283818151815260200191508051906020019060200280838360005b83811015610d38578082015181840152602081019050610d1d565b505050509050019250505060405180910390f35b348015610d5857600080fd5b50610d9b60048036036020811015610d6f57600080fd5b81019080803573ffffffffffffffffffffffffffffffffffffffff169060200190929190505050612a4e565b60405180821515815260200191505060405180910390f35b348015610dbf57600080fd5b50610dec60048036036020811015610dd657600080fd5b8101908080359060200190929190505050612aa7565b604051808781526020018673ffffffffffffffffffffffffffffffffffffffff1681526020018573ffffffffffffffffffffffffffffffffffffffff168152602001848152602001836004811115610e4057fe5b81526020018215158152602001965050505050505060405180910390f35b348015610e6a57600080fd5b5061105c60048036036080811015610e8157600080fd5b8101908080359060200190640100000000811115610e9e57600080fd5b820183602082011115610eb057600080fd5b80359060200191846001830284011164010000000083111715610ed257600080fd5b91908080601f016020809104026020016040519081016040528093929190818152602001838380828437600081840152601f19601f8201169050808301925050505050505091929192908035906020019092919080359060200190640100000000811115610f3f57600080fd5b820183602082011115610f5157600080fd5b80359060200191846001830284011164010000000083111715610f7357600080fd5b91908080601f016020809104026020016040519081016040528093929190818152602001838380828437600081840152601f19601f82011690508083019250505050505050919291929080359060200190640100000000811115610fd657600080fd5b820183602082011115610fe857600080fd5b8035906020019184600183028401116401000000008311171561100a57600080fd5b91908080601f016020809104026020016040519081016040528093929190818152602001838380828437600081840152601f19601f820116905080830192505050505050509192919290505050612b3d565b005b34801561106a57600080fd5b506110976004803603602081101561108157600080fd5b8101908080359060200190929190505050612e1d565b005b3480156110a557600080fd5b506110e8600480360360208110156110bc57600080fd5b81019080803573ffffffffffffffffffffffffffffffffffffffff169060200190929190505050612ebd565b6040518080602001828103825283818151815260200191508051906020019060200280838360005b8381101561112b578082015181840152602081019050611110565b505050509050019250505060405180910390f35b34801561114b57600080fd5b50611154612f54565b6040518080602001828103825283818151815260200191508051906020019060200280838360005b8381101561119757808201518184015260208101905061117c565b505050509050019250505060405180910390f35b3480156111b757600080fd5b506111e4600480360360208110156111ce57600080fd5b8101908080359060200190929190505050612ff4565b005b3480156111f257600080fd5b506112356004803603602081101561120957600080fd5b81019080803573ffffffffffffffffffffffffffffffffffffffff1690602001909291905050506132d5565b604051808773ffffffffffffffffffffffffffffffffffffffff1681526020018060200186815260200180602001806020018515158152602001848103845289818151815260200191508051906020019080838360005b838110156112a757808201518184015260208101905061128c565b50505050905090810190601f1680156112d45780820380516001836020036101000a031916815260200191505b50848103835287818151815260200191508051906020019080838360005b8381101561130d5780820151818401526020810190506112f2565b50505050905090810190601f16801561133a5780820380516001836020036101000a031916815260200191505b50848103825286818151815260200191508051906020019080838360005b83811015611373578082015181840152602081019050611358565b50505050905090810190601f1680156113a05780820380516001836020036101000a031916815260200191505b50995050505050505050505060405180910390f35b3480156113c157600080fd5b506113ee600480360360208110156113d857600080fd5b8101908080359060200190929190505050613506565b6040518082815260200191505060405180910390f35b34801561141057600080fd5b5061143d6004803603602081101561142757600080fd5b8101908080359060200190929190505050613526565b60405180821515815260200191505060405180910390f35b34801561146157600080fd5b506114a46004803603602081101561147857600080fd5b81019080803573ffffffffffffffffffffffffffffffffffffffff169060200190929190505050613553565b60405180821515815260200191505060405180910390f35b3480156114c857600080fd5b5061150b600480360360208110156114df57600080fd5b81019080803573ffffffffffffffffffffffffffffffffffffffff1690602001909291905050506135bd565b60405180821515815260200191505060405180910390f35b34801561152f57600080fd5b5061155c6004803603602081101561154657600080fd5b8101908080359060200190929190505050613624565b604051808a815260200189815260200180602001888152602001806020018060200187151581526020018673ffffffffffffffffffffffffffffffffffffffff168152602001851515815260200184810384528b818151815260200191508051906020019080838360005b838110156115e25780820151818401526020810190506115c7565b50505050905090810190601f16801561160f5780820380516001836020036101000a031916815260200191505b50848103835289818151815260200191508051906020019080838360005b8381101561164857808201518184015260208101905061162d565b50505050905090810190601f1680156116755780820380516001836020036101000a031916815260200191505b50848103825288818151815260200191508051906020019080838360005b838110156116ae578082015181840152602081019050611693565b50505050905090810190601f1680156116db5780820380516001836020036101000a031916815260200191505b509c5050505050505050505050505060405180910390f35b3480156116ff57600080fd5b5061172c6004803603602081101561171657600080fd5b8101908080359060200190929190505050613874565b005b60003373ffffffffffffffffffffffffffffffffffffffff1660008054906101000a900473ffffffffffffffffffffffffffffffffffffffff1673ffffffffffffffffffffffffffffffffffffffff161461178c57600090506119ff565b3373ffffffffffffffffffffffffffffffffffffffff1660008054906101000a900473ffffffffffffffffffffffffffffffffffffffff1673ffffffffffffffffffffffffffffffffffffffff16146117e457600080fd5b6001600860008973ffffffffffffffffffffffffffffffffffffffff1673ffffffffffffffffffffffffffffffffffffffff16815260200190815260200160002060006101000a81548160ff0219169083151502179055506007600060018152602001908152602001600020879080600181540180825580915050600190039060005260206000200160009091909190916101000a81548173ffffffffffffffffffffffffffffffffffffffff021916908373ffffffffffffffffffffffffffffffffffffffff1602179055506040518060e0016040528060015481526020018873ffffffffffffffffffffffffffffffffffffffff16815260200187815260200186815260200185815260200184815260200183815250600660008973ffffffffffffffffffffffffffffffffffffffff1673ffffffffffffffffffffffffffffffffffffffff1681526020019081526020016000206000820151816000015560208201518160010160006101000a81548173ffffffffffffffffffffffffffffffffffffffff021916908373ffffffffffffffffffffffffffffffffffffffff16021790555060408201518160020190805190602001906119a89291906138b8565b506060820151816003015560808201518160040190805190602001906119cf9291906138b8565b5060a08201518160050190805190602001906119ec9291906138b8565b5060c08201518160060155905050600190505b9695505050505050565b60025481565b6000600c60008373ffffffffffffffffffffffffffffffffffffffff1673ffffffffffffffffffffffffffffffffffffffff16815260200190815260200160002060009054906101000a900460ff1615611a6c5760019050611a71565b600090505b919050565b60035481565b60606012600060018152602001908152602001600020805480602002602001604051908101604052809291908181526020018280548015611adc57602002820191906000526020600020905b815481526020019060010190808311611ac8575b5050505050905090565b3373ffffffffffffffffffffffffffffffffffffffff16600f600083815260200190815260200160002060010160009054906101000a900473ffffffffffffffffffffffffffffffffffffffff1673ffffffffffffffffffffffffffffffffffffffff1614611b5457600080fd5b6002600f600083815260200190815260200160002060040160006101000a81548160ff02191690836004811115611b8757fe5b021790555050565b60008054906101000a900473ffffffffffffffffffffffffffffffffffffffff1673ffffffffffffffffffffffffffffffffffffffff163373ffffffffffffffffffffffffffffffffffffffff1614611c50576040517f08c379a00000000000000000000000000000000000000000000000000000000081526004018080602001828103825260198152602001807f796f7520617265206e6f7420636f6e74726163744f776e65720000000000000081525060200191505060405180910390fd5b806000806101000a81548173ffffffffffffffffffffffffffffffffffffffff021916908373ffffffffffffffffffffffffffffffffffffffff16021790555050565b611c9c33612a4e565b611ca557600080fd5b60036000815480929190600101919050555060405180610120016040528060035481526020018681526020018581526020018481526020018381526020018281526020016000151581526020013373ffffffffffffffffffffffffffffffffffffffff16815260200160001515815250600e6000600354815260200190815260200160002060008201518160000155602082015181600101556040820151816002019080519060200190611d5a9291906138b8565b50606082015181600301556080820151816004019080519060200190611d819291906138b8565b5060a0820151816005019080519060200190611d9e9291906138b8565b5060c08201518160060160006101000a81548160ff02191690831515021790555060e08201518160060160016101000a81548173ffffffffffffffffffffffffffffffffffffffff021916908373ffffffffffffffffffffffffffffffffffffffff1602179055506101008201518160060160156101000a81548160ff021916908315150217905550905050600d60003373ffffffffffffffffffffffffffffffffffffffff1673ffffffffffffffffffffffffffffffffffffffff1681526020019081526020016000206003549080600181540180825580915050600190039060005260206000200160009091909190915055601260006001815260200190815260200160002060035490806001815401808255809150506001900390600052602060002001600090919091909150555050505050565b6060601060003373ffffffffffffffffffffffffffffffffffffffff1673ffffffffffffffffffffffffffffffffffffffff168152602001908152602001600020805480602002602001604051908101604052809291908181526020018280548015611f6157602002820191906000526020600020905b815481526020019060010190808311611f4d575b5050505050905090565b3373ffffffffffffffffffffffffffffffffffffffff16600f600083815260200190815260200160002060010160009054906101000a900473ffffffffffffffffffffffffffffffffffffffff1673ffffffffffffffffffffffffffffffffffffffff1614611fd957600080fd5b6001600f600083815260200190815260200160002060040160006101000a81548160ff0219169083600481111561200c57fe5b021790555050565b61201d336135bd565b61202657600080fd5b6001600960008373ffffffffffffffffffffffffffffffffffffffff1673ffffffffffffffffffffffffffffffffffffffff16815260200190815260200160002060050160006101000a81548160ff02191690831515021790555050565b3373ffffffffffffffffffffffffffffffffffffffff16600f600083815260200190815260200160002060020160009054906101000a900473ffffffffffffffffffffffffffffffffffffffff1673ffffffffffffffffffffffffffffffffffffffff1614801561212e5750600160048111156120fd57fe5b600f600083815260200190815260200160002060040160009054906101000a900460ff16600481111561212c57fe5b145b61213757600080fd5b6003600f600083815260200190815260200160002060040160006101000a81548160ff0219169083600481111561216a57fe5b0217905550600e6000600f600084815260200190815260200160002060030154815260200190815260200160002060060160019054906101000a900473ffffffffffffffffffffffffffffffffffffffff1673ffffffffffffffffffffffffffffffffffffffff166108fc349081150290604051600060405180830381858888f19350505050158015612201573d6000803e3d6000fd5b506001600f600083815260200190815260200160002060040160016101000a81548160ff021916908315150217905550601360006001815260200190815260200160002081908060018154018082558091505060019003906000526020600020016000909190919091505550565b6060600b60006001815260200190815260200160002080548060200260200160405190810160405280929190818152602001828054801561230557602002820191906000526020600020905b8160009054906101000a900473ffffffffffffffffffffffffffffffffffffffff1673ffffffffffffffffffffffffffffffffffffffff16815260200190600101908083116122bb575b5050505050905090565b60066020528060005260406000206000915090508060000154908060010160009054906101000a900473ffffffffffffffffffffffffffffffffffffffff1690806002018054600181600116156101000203166002900480601f0160208091040260200160405190810160405280929190818152602001828054600181600116156101000203166002900480156123e75780601f106123bc576101008083540402835291602001916123e7565b820191906000526020600020905b8154815290600101906020018083116123ca57829003601f168201915b505050505090806003015490806004018054600181600116156101000203166002900480601f01602080910402602001604051908101604052809291908181526020018280546001816001161561010002031660029004801561248b5780601f106124605761010080835404028352916020019161248b565b820191906000526020600020905b81548152906001019060200180831161246e57829003601f168201915b505050505090806005018054600181600116156101000203166002900480601f0160208091040260200160405190810160405280929190818152602001828054600181600116156101000203166002900480156125295780601f106124fe57610100808354040283529160200191612529565b820191906000526020600020905b81548152906001019060200180831161250c57829003601f168201915b5050505050908060060154905087565b6000600e600083815260200190815260200160002060060160159054906101000a900460ff169050919050565b60008054906101000a900473ffffffffffffffffffffffffffffffffffffffff1673ffffffffffffffffffffffffffffffffffffffff163373ffffffffffffffffffffffffffffffffffffffff1614612627576040517f08c379a00000000000000000000000000000000000000000000000000000000081526004018080602001828103825260198152602001807f596f7520617265206e6f7420636f6e74726163744f776e65720000000000000081525060200191505060405180910390fd5b600860008273ffffffffffffffffffffffffffffffffffffffff1673ffffffffffffffffffffffffffffffffffffffff16815260200190815260200160002060009054906101000a900460ff166126e6576040517f08c379a00000000000000000000000000000000000000000000000000000000081526004018080602001828103825260188152602001807f4c616e6420496e73706563746f72206e6f7420666f756e64000000000000000081525060200191505060405180910390fd5b6000600860008373ffffffffffffffffffffffffffffffffffffffff1673ffffffffffffffffffffffffffffffffffffffff16815260200190815260200160002060006101000a81548160ff0219169083151502179055506000600760006001815260200190815260200160002080549050905060005b818110156128fa578273ffffffffffffffffffffffffffffffffffffffff166007600060018152602001908152602001600020828154811061279b57fe5b9060005260206000200160009054906101000a900473ffffffffffffffffffffffffffffffffffffffff1673ffffffffffffffffffffffffffffffffffffffff1614156128ed576007600060018152602001908152602001600020600183038154811061280457fe5b9060005260206000200160009054906101000a900473ffffffffffffffffffffffffffffffffffffffff166007600060018152602001908152602001600020828154811061284e57fe5b9060005260206000200160006101000a81548173ffffffffffffffffffffffffffffffffffffffff021916908373ffffffffffffffffffffffffffffffffffffffff16021790555060076000600181526020019081526020016000208054806128b357fe5b6001900381819060005260206000200160006101000a81549073ffffffffffffffffffffffffffffffffffffffff021916905590556128fa565b808060010191505061275d565b505050565b60045481565b8073ffffffffffffffffffffffffffffffffffffffff166108fc349081150290604051600060405180830381858888f1935050505015801561294b573d6000803e3d6000fd5b5050565b6060601160003373ffffffffffffffffffffffffffffffffffffffff1673ffffffffffffffffffffffffffffffffffffffff1681526020019081526020016000208054806020026020016040519081016040528092919081815260200182805480156129da57602002820191906000526020600020905b8154815260200190600101908083116129c6575b5050505050905090565b60606013600060018152602001908152602001600020805480602002602001604051908101604052809291908181526020018280548015612a4457602002820191906000526020600020905b815481526020019060010190808311612a30575b5050505050905090565b6000600960008373ffffffffffffffffffffffffffffffffffffffff1673ffffffffffffffffffffffffffffffffffffffff16815260200190815260200160002060050160009054906101000a900460ff169050919050565b600f6020528060005260406000206000915090508060000154908060010160009054906101000a900473ffffffffffffffffffffffffffffffffffffffff16908060020160009054906101000a900473ffffffffffffffffffffffffffffffffffffffff16908060030154908060040160009054906101000a900460ff16908060040160019054906101000a900460ff16905086565b600c60003373ffffffffffffffffffffffffffffffffffffffff1673ffffffffffffffffffffffffffffffffffffffff16815260200190815260200160002060009054906101000a900460ff1615612b9457600080fd5b6001600c60003373ffffffffffffffffffffffffffffffffffffffff1673ffffffffffffffffffffffffffffffffffffffff16815260200190815260200160002060006101000a81548160ff021916908315150217905550600260008154809291906001019190505550600b600060018152602001908152602001600020339080600181540180825580915050600190039060005260206000200160009091909190916101000a81548173ffffffffffffffffffffffffffffffffffffffff021916908373ffffffffffffffffffffffffffffffffffffffff16021790555033600a6000600254815260200190815260200160002060006101000a81548173ffffffffffffffffffffffffffffffffffffffff021916908373ffffffffffffffffffffffffffffffffffffffff1602179055506040518060c001604052803373ffffffffffffffffffffffffffffffffffffffff16815260200185815260200184815260200183815260200182815260200160001515815250600960003373ffffffffffffffffffffffffffffffffffffffff1673ffffffffffffffffffffffffffffffffffffffff16815260200190815260200160002060008201518160000160006101000a81548173ffffffffffffffffffffffffffffffffffffffff021916908373ffffffffffffffffffffffffffffffffffffffff1602179055506020820151816001019080519060200190612daf9291906138b8565b50604082015181600201556060820151816003019080519060200190612dd69291906138b8565b506080820151816004019080519060200190612df39291906138b8565b5060a08201518160050160006101000a81548160ff02191690831515021790555090505050505050565b3373ffffffffffffffffffffffffffffffffffffffff16600e600083815260200190815260200160002060060160019054906101000a900473ffffffffffffffffffffffffffffffffffffffff1673ffffffffffffffffffffffffffffffffffffffff1614612e8b57600080fd5b6001600e600083815260200190815260200160002060060160006101000a81548160ff02191690831515021790555050565b6060600d60008373ffffffffffffffffffffffffffffffffffffffff1673ffffffffffffffffffffffffffffffffffffffff168152602001908152602001600020805480602002602001604051908101604052809291908181526020018280548015612f4857602002820191906000526020600020905b815481526020019060010190808311612f34575b50505050509050919050565b60606007600060018152602001908152602001600020805480602002602001604051908101604052809291908181526020018280548015612fea57602002820191906000526020600020905b8160009054906101000a900473ffffffffffffffffffffffffffffffffffffffff1673ffffffffffffffffffffffffffffffffffffffff1681526020019060010190808311612fa0575b5050505050905090565b612ffd33612a4e565b801561300e575061300d81612539565b5b61301757600080fd5b6005600081548092919060010191905055506040518060c001604052806005548152602001600e600084815260200190815260200160002060060160019054906101000a900473ffffffffffffffffffffffffffffffffffffffff1673ffffffffffffffffffffffffffffffffffffffff1681526020013373ffffffffffffffffffffffffffffffffffffffff168152602001828152602001600060048111156130bd57fe5b815260200160001515815250600f600060055481526020019081526020016000206000820151816000015560208201518160010160006101000a81548173ffffffffffffffffffffffffffffffffffffffff021916908373ffffffffffffffffffffffffffffffffffffffff16021790555060408201518160020160006101000a81548173ffffffffffffffffffffffffffffffffffffffff021916908373ffffffffffffffffffffffffffffffffffffffff1602179055506060820151816003015560808201518160040160006101000a81548160ff021916908360048111156131a457fe5b021790555060a08201518160040160016101000a81548160ff02191690831515021790555090505060106000600e600084815260200190815260200160002060060160019054906101000a900473ffffffffffffffffffffffffffffffffffffffff1673ffffffffffffffffffffffffffffffffffffffff1673ffffffffffffffffffffffffffffffffffffffff1681526020019081526020016000206005549080600181540180825580915050600190039060005260206000200160009091909190915055601160003373ffffffffffffffffffffffffffffffffffffffff1673ffffffffffffffffffffffffffffffffffffffff168152602001908152602001600020600554908060018154018082558091505060019003906000526020600020016000909190919091505550565b60096020528060005260406000206000915090508060000160009054906101000a900473ffffffffffffffffffffffffffffffffffffffff1690806001018054600181600116156101000203166002900480601f0160208091040260200160405190810160405280929190818152602001828054600181600116156101000203166002900480156133a75780601f1061337c576101008083540402835291602001916133a7565b820191906000526020600020905b81548152906001019060200180831161338a57829003601f168201915b505050505090806002015490806003018054600181600116156101000203166002900480601f01602080910402602001604051908101604052809291908181526020018280546001816001161561010002031660029004801561344b5780601f106134205761010080835404028352916020019161344b565b820191906000526020600020905b81548152906001019060200180831161342e57829003601f168201915b505050505090806004018054600181600116156101000203166002900480601f0160208091040260200160405190810160405280929190818152602001828054600181600116156101000203166002900480156134e95780601f106134be576101008083540402835291602001916134e9565b820191906000526020600020905b8154815290600101906020018083116134cc57829003601f168201915b5050505050908060050160009054906101000a900460ff16905086565b6000600e6000838152602001908152602001600020600301549050919050565b6000600f600083815260200190815260200160002060040160019054906101000a900460ff169050919050565b60008060009054906101000a900473ffffffffffffffffffffffffffffffffffffffff1673ffffffffffffffffffffffffffffffffffffffff168273ffffffffffffffffffffffffffffffffffffffff1614156135b357600190506135b8565b600090505b919050565b6000600860008373ffffffffffffffffffffffffffffffffffffffff1673ffffffffffffffffffffffffffffffffffffffff16815260200190815260200160002060009054906101000a900460ff161561361a576001905061361f565b600090505b919050565b600e602052806000526040600020600091509050806000015490806001015490806002018054600181600116156101000203166002900480601f0160208091040260200160405190810160405280929190818152602001828054600181600116156101000203166002900480156136dc5780601f106136b1576101008083540402835291602001916136dc565b820191906000526020600020905b8154815290600101906020018083116136bf57829003601f168201915b505050505090806003015490806004018054600181600116156101000203166002900480601f0160208091040260200160405190810160405280929190818152602001828054600181600116156101000203166002900480156137805780601f1061375557610100808354040283529160200191613780565b820191906000526020600020905b81548152906001019060200180831161376357829003601f168201915b505050505090806005018054600181600116156101000203166002900480601f01602080910402602001604051908101604052809291908181526020018280546001816001161561010002031660029004801561381e5780601f106137f35761010080835404028352916020019161381e565b820191906000526020600020905b81548152906001019060200180831161380157829003601f168201915b5050505050908060060160009054906101000a900460ff16908060060160019054906101000a900473ffffffffffffffffffffffffffffffffffffffff16908060060160159054906101000a900460ff16905089565b61387d336135bd565b61388657600080fd5b6001600e600083815260200190815260200160002060060160156101000a81548160ff02191690831515021790555050565b828054600181600116156101000203166002900490600052602060002090601f016020900481019282601f106138f957805160ff1916838001178555613927565b82800160010185558215613927579182015b8281111561392657825182559160200191906001019061390b565b5b5090506139349190613938565b5090565b5b80821115613951576000816000905550600101613939565b509056fea26469706673582212206ceb2f80e207304661da707b2cf008544904e284279bdbb56b38538e9c43b04d64736f6c634300060c0033",
  "immutableReferences": {},
  "source": "// SPDX-License-Identifier: MIT\r\npragma solidity ^0.6.0;\r\n\r\ncontract Land {\r\n    address contractOwner;\r\n\r\n    constructor() public{\r\n        contractOwner = msg.sender;\r\n    }\r\n\r\n    struct Landreg {\r\n        uint id;\r\n        uint area;\r\n        string landAddress;\r\n        uint landPrice;\r\n        string allLatitudeLongitude;\r\n        //string allLongitude;\r\n        string physicalSurveyNumber;\r\n        bool isforSell;\r\n        address payable ownerAddress;\r\n        bool isLandVerified;\r\n    }\r\n\r\n    struct User{\r\n        address id;\r\n        string name;\r\n        uint age;\r\n        string city;\r\n        string email;\r\n        bool isUserVerified;\r\n    }\r\n\r\n    struct LandInspector {\r\n        uint id;\r\n        address _addr;\r\n        string name;\r\n        uint age;\r\n        string designation;\r\n        string city;\r\n        uint energyavailable;\r\n    }\r\n\r\n    struct LandRequest{\r\n        uint reqId;\r\n        address payable sellerId;\r\n        address payable buyerId;\r\n        uint landId;\r\n        reqStatus requestStatus;\r\n        bool isPaymentDone;\r\n    }\r\n    enum reqStatus {requested,accepted,rejected,paymentdone,commpleted}\r\n\r\n\r\n    uint inspectorsCount;\r\n    uint public userCount;\r\n    uint public landsCount;\r\n    uint public documentId;\r\n    uint requestCount;\r\n\r\n\r\n    mapping(address => LandInspector) public InspectorMapping;\r\n    mapping(uint => address[]) allLandInspectorList;\r\n    mapping(address => bool)  RegisteredInspectorMapping;\r\n    mapping(address => User) public UserMapping;\r\n    mapping(uint => address)  AllUsers;\r\n    mapping(uint => address[])  allUsersList;\r\n    mapping(address => bool)  RegisteredUserMapping;\r\n    mapping(address => uint[])  MyLands;\r\n    mapping(uint => Landreg) public lands;\r\n    mapping(uint => LandRequest) public LandRequestMapping;\r\n    mapping(address => uint[])  MyReceivedLandRequest;\r\n    mapping(address => uint[])  MySentLandRequest;\r\n    mapping(uint => uint[])  allLandList;\r\n    mapping(uint => uint[])  paymentDoneList;\r\n\r\n\r\n    function isContractOwner(address _addr) public view returns(bool){\r\n        if(_addr==contractOwner)\r\n            return true;\r\n        else\r\n            return false;\r\n    }\r\n\r\n    function changeContractOwner(address _addr)public {\r\n        require(msg.sender==contractOwner,\"you are not contractOwner\");\r\n\r\n        contractOwner=_addr;\r\n    }\r\n\r\n    //-----------------------------------------------LandInspector-----------------------------------------------\r\n\r\n    function addLandInspector(address _addr,string memory _name, uint _age, string memory _designation,string memory _city, uint _energyavailable) public returns(bool){\r\n        if(contractOwner!=msg.sender)\r\n            return false;\r\n        require(contractOwner==msg.sender);\r\n        RegisteredInspectorMapping[_addr]=true;\r\n        allLandInspectorList[1].push(_addr);\r\n        InspectorMapping[_addr] = LandInspector(inspectorsCount,_addr,_name, _age, _designation,_city, _energyavailable);\r\n        return true;\r\n    }\r\n\r\n    function ReturnAllLandIncpectorList() public view returns(address[] memory)\r\n    {\r\n        return allLandInspectorList[1];\r\n    }\r\n\r\n    function removeLandInspector(address _addr) public{\r\n        require(msg.sender==contractOwner,\"You are not contractOwner\");\r\n        require(RegisteredInspectorMapping[_addr],\"Land Inspector not found\");\r\n        RegisteredInspectorMapping[_addr]=false;\r\n\r\n\r\n        uint len=allLandInspectorList[1].length;\r\n        for(uint i=0;i<len;i++)\r\n        {\r\n            if(allLandInspectorList[1][i]==_addr)\r\n            {\r\n                allLandInspectorList[1][i]=allLandInspectorList[1][len-1];\r\n                allLandInspectorList[1].pop();\r\n                break;\r\n            }\r\n        }\r\n    }\r\n\r\n    function isLandInspector(address _id) public view returns (bool) {\r\n        if(RegisteredInspectorMapping[_id]){\r\n            return true;\r\n        }else{\r\n            return false;\r\n        }\r\n    }\r\n\r\n\r\n\r\n    //-----------------------------------------------User-----------------------------------------------\r\n\r\n    function isUserRegistered(address _addr) public view returns(bool)\r\n    {\r\n        if(RegisteredUserMapping[_addr]){\r\n            return true;\r\n        }else{\r\n            return false;\r\n        }\r\n    }\r\n\r\n    function registerUser(string memory _name, uint _age, string memory _city, string memory _email\r\n    ) public {\r\n\r\n        require(!RegisteredUserMapping[msg.sender]);\r\n\r\n        RegisteredUserMapping[msg.sender] = true;\r\n        userCount++;\r\n        allUsersList[1].push(msg.sender);\r\n        AllUsers[userCount]=msg.sender;\r\n        UserMapping[msg.sender] = User(msg.sender, _name, _age, _city,_email, false);\r\n        //emit Registration(msg.sender);\r\n    }\r\n\r\n    function verifyUser(address _userId) public{\r\n        require(isLandInspector(msg.sender));\r\n        UserMapping[_userId].isUserVerified=true;\r\n    }\r\n    function isUserVerified(address id) public view returns(bool){\r\n        return UserMapping[id].isUserVerified;\r\n    }\r\n    function ReturnAllUserList() public view returns(address[] memory)\r\n    {\r\n        return allUsersList[1];\r\n    }\r\n\r\n\r\n    //-----------------------------------------------Land-----------------------------------------------\r\n    function addLand(uint _area, string memory _address, uint landPrice,string memory _allLatiLongi, string memory _surveyNum) public {\r\n        require(isUserVerified(msg.sender));\r\n        landsCount++;\r\n        lands[landsCount] = Landreg(landsCount, _area, _address, landPrice,_allLatiLongi, _surveyNum,false,msg.sender,false);\r\n        MyLands[msg.sender].push(landsCount);\r\n        allLandList[1].push(landsCount);\r\n        // emit AddingLand(landsCount);\r\n    }\r\n\r\n    function ReturnAllLandList() public view returns(uint[] memory)\r\n    {\r\n        return allLandList[1];\r\n    }\r\n\r\n    function verifyLand(uint _id) public{\r\n        require(isLandInspector(msg.sender));\r\n        lands[_id].isLandVerified=true;\r\n    }\r\n    function isLandVerified(uint id) public view returns(bool){\r\n        return lands[id].isLandVerified;\r\n    }\r\n\r\n    function myAllLands(address id) public view returns( uint[] memory){\r\n        return MyLands[id];\r\n    }\r\n\r\n\r\n    function makeItforSell(uint id) public{\r\n        require(lands[id].ownerAddress==msg.sender);\r\n        lands[id].isforSell=true;\r\n    }\r\n\r\n    function requestforBuy(uint _landId) public\r\n    {\r\n        require(isUserVerified(msg.sender) && isLandVerified(_landId));\r\n        requestCount++;\r\n        LandRequestMapping[requestCount]=LandRequest(requestCount,lands[_landId].ownerAddress,msg.sender,_landId,reqStatus.requested,false);\r\n        MyReceivedLandRequest[lands[_landId].ownerAddress].push(requestCount);\r\n        MySentLandRequest[msg.sender].push(requestCount);\r\n    }\r\n\r\n    function myReceivedLandRequests() public view returns(uint[] memory)\r\n    {\r\n        return MyReceivedLandRequest[msg.sender];\r\n    }\r\n    function mySentLandRequests() public view returns(uint[] memory)\r\n    {\r\n        return MySentLandRequest[msg.sender];\r\n    }\r\n    function acceptRequest(uint _requestId) public\r\n    {\r\n        require(LandRequestMapping[_requestId].sellerId==msg.sender);\r\n        LandRequestMapping[_requestId].requestStatus=reqStatus.accepted;\r\n    }\r\n    function rejectRequest(uint _requestId) public\r\n    {\r\n        require(LandRequestMapping[_requestId].sellerId==msg.sender);\r\n        LandRequestMapping[_requestId].requestStatus=reqStatus.rejected;\r\n    }\r\n\r\n    function requesteStatus(uint id) public view returns(bool)\r\n    {\r\n        return LandRequestMapping[id].isPaymentDone;\r\n    }\r\n\r\n    function landPrice(uint id) public view returns(uint)\r\n    {\r\n        return lands[id].landPrice;\r\n    }\r\n    function makePayment(uint _requestId) public payable\r\n    {\r\n        require(LandRequestMapping[_requestId].buyerId==msg.sender && LandRequestMapping[_requestId].requestStatus==reqStatus.accepted);\r\n\r\n        LandRequestMapping[_requestId].requestStatus=reqStatus.paymentdone;\r\n        //LandRequestMapping[_requestId].sellerId.transfer(lands[LandRequestMapping[_requestId].landId].landPrice);\r\n        //lands[LandRequestMapping[_requestId].landId].ownerAddress.transfer(lands[LandRequestMapping[_requestId].landId].landPrice);\r\n        lands[LandRequestMapping[_requestId].landId].ownerAddress.transfer(msg.value);\r\n        LandRequestMapping[_requestId].isPaymentDone=true;\r\n        paymentDoneList[1].push(_requestId);\r\n    }\r\n\r\n    function returnPaymentDoneList() public view returns(uint[] memory)\r\n    {\r\n        return paymentDoneList[1];\r\n    }\r\n\r\n    function makePaymentTestFun(address payable _reveiver) public payable\r\n    {\r\n        _reveiver.transfer(msg.value);\r\n    }\r\n}",
  "sourcePath": "P:\\Blockchain-Energy-Trading\\contracts\\landContrat.sol",
  "compiler": {
    "name": "solc",
    "version": "0.6.12+commit.27d51765.Emscripten.clang"
  },
  "schemaVersion": "3.4.12",
  "updatedAt": "2023-04-20T16:17:32.279Z",
  "networkType": "ethereum",
  "devdoc": {
    "kind": "dev",
    "methods": {},
    "version": 1
  },
  "userdoc": {
    "kind": "user",
    "methods": {},
    "version": 1
  }
}