{
  "contractName": "Land",
  "abi": [
    {
      "inputs": [],
      "stateMutability": "nonpayable",
      "type": "constructor"
    },
    {
      "inputs": [
        {
          "internalType": "address",
          "name": "",
          "type": "address"
        }
      ],
      "name": "InspectorMapping",
      "outputs": [
        {
          "internalType": "uint256",
          "name": "id",
          "type": "uint256"
        },
        {
          "internalType": "address",
          "name": "_addr",
          "type": "address"
        },
        {
          "internalType": "string",
          "name": "name",
          "type": "string"
        },
        {
          "internalType": "uint256",
          "name": "age",
          "type": "uint256"
        },
        {
          "internalType": "string",
          "name": "designation",
          "type": "string"
        },
        {
          "internalType": "string",
          "name": "city",
          "type": "string"
        }
      ],
      "stateMutability": "view",
      "type": "function",
      "constant": true
    },
    {
      "inputs": [
        {
          "internalType": "uint256",
          "name": "",
          "type": "uint256"
        }
      ],
      "name": "LandRequestMapping",
      "outputs": [
        {
          "internalType": "uint256",
          "name": "reqId",
          "type": "uint256"
        },
        {
          "internalType": "address payable",
          "name": "sellerId",
          "type": "address"
        },
        {
          "internalType": "address payable",
          "name": "buyerId",
          "type": "address"
        },
        {
          "internalType": "uint256",
          "name": "landId",
          "type": "uint256"
        },
        {
          "internalType": "enum Land.reqStatus",
          "name": "requestStatus",
          "type": "uint8"
        },
        {
          "internalType": "bool",
          "name": "isPaymentDone",
          "type": "bool"
        }
      ],
      "stateMutability": "view",
      "type": "function",
      "constant": true
    },
    {
      "inputs": [
        {
          "internalType": "address",
          "name": "",
          "type": "address"
        }
      ],
      "name": "UserMapping",
      "outputs": [
        {
          "internalType": "address",
          "name": "id",
          "type": "address"
        },
        {
          "internalType": "string",
          "name": "name",
          "type": "string"
        },
        {
          "internalType": "uint256",
          "name": "age",
          "type": "uint256"
        },
        {
          "internalType": "string",
          "name": "city",
          "type": "string"
        },
        {
          "internalType": "string",
          "name": "email",
          "type": "string"
        },
        {
          "internalType": "bool",
          "name": "isUserVerified",
          "type": "bool"
        }
      ],
      "stateMutability": "view",
      "type": "function",
      "constant": true
    },
    {
      "inputs": [],
      "name": "documentId",
      "outputs": [
        {
          "internalType": "uint256",
          "name": "",
          "type": "uint256"
        }
      ],
      "stateMutability": "view",
      "type": "function",
      "constant": true
    },
    {
      "inputs": [
        {
          "internalType": "uint256",
          "name": "",
          "type": "uint256"
        }
      ],
      "name": "lands",
      "outputs": [
        {
          "internalType": "uint256",
          "name": "id",
          "type": "uint256"
        },
        {
          "internalType": "uint256",
          "name": "area",
          "type": "uint256"
        },
        {
          "internalType": "string",
          "name": "landAddress",
          "type": "string"
        },
        {
          "internalType": "uint256",
          "name": "landPrice",
          "type": "uint256"
        },
        {
          "internalType": "string",
          "name": "allLatitudeLongitude",
          "type": "string"
        },
        {
          "internalType": "string",
          "name": "physicalSurveyNumber",
          "type": "string"
        },
        {
          "internalType": "bool",
          "name": "isforSell",
          "type": "bool"
        },
        {
          "internalType": "address payable",
          "name": "ownerAddress",
          "type": "address"
        },
        {
          "internalType": "bool",
          "name": "isLandVerified",
          "type": "bool"
        }
      ],
      "stateMutability": "view",
      "type": "function",
      "constant": true
    },
    {
      "inputs": [],
      "name": "landsCount",
      "outputs": [
        {
          "internalType": "uint256",
          "name": "",
          "type": "uint256"
        }
      ],
      "stateMutability": "view",
      "type": "function",
      "constant": true
    },
    {
      "inputs": [],
      "name": "userCount",
      "outputs": [
        {
          "internalType": "uint256",
          "name": "",
          "type": "uint256"
        }
      ],
      "stateMutability": "view",
      "type": "function",
      "constant": true
    },
    {
      "inputs": [
        {
          "internalType": "address",
          "name": "_addr",
          "type": "address"
        }
      ],
      "name": "isContractOwner",
      "outputs": [
        {
          "internalType": "bool",
          "name": "",
          "type": "bool"
        }
      ],
      "stateMutability": "view",
      "type": "function",
      "constant": true
    },
    {
      "inputs": [
        {
          "internalType": "address",
          "name": "_addr",
          "type": "address"
        }
      ],
      "name": "changeContractOwner",
      "outputs": [],
      "stateMutability": "nonpayable",
      "type": "function"
    },
    {
      "inputs": [
        {
          "internalType": "address",
          "name": "_addr",
          "type": "address"
        },
        {
          "internalType": "string",
          "name": "_name",
          "type": "string"
        },
        {
          "internalType": "uint256",
          "name": "_age",
          "type": "uint256"
        },
        {
          "internalType": "string",
          "name": "_designation",
          "type": "string"
        },
        {
          "internalType": "string",
          "name": "_city",
          "type": "string"
        }
      ],
      "name": "addLandInspector",
      "outputs": [
        {
          "internalType": "bool",
          "name": "",
          "type": "bool"
        }
      ],
      "stateMutability": "nonpayable",
      "type": "function"
    },
    {
      "inputs": [],
      "name": "ReturnAllLandIncpectorList",
      "outputs": [
        {
          "internalType": "address[]",
          "name": "",
          "type": "address[]"
        }
      ],
      "stateMutability": "view",
      "type": "function",
      "constant": true
    },
    {
      "inputs": [
        {
          "internalType": "address",
          "name": "_addr",
          "type": "address"
        }
      ],
      "name": "removeLandInspector",
      "outputs": [],
      "stateMutability": "nonpayable",
      "type": "function"
    },
    {
      "inputs": [
        {
          "internalType": "address",
          "name": "_id",
          "type": "address"
        }
      ],
      "name": "isLandInspector",
      "outputs": [
        {
          "internalType": "bool",
          "name": "",
          "type": "bool"
        }
      ],
      "stateMutability": "view",
      "type": "function",
      "constant": true
    },
    {
      "inputs": [
        {
          "internalType": "address",
          "name": "_addr",
          "type": "address"
        }
      ],
      "name": "isUserRegistered",
      "outputs": [
        {
          "internalType": "bool",
          "name": "",
          "type": "bool"
        }
      ],
      "stateMutability": "view",
      "type": "function",
      "constant": true
    },
    {
      "inputs": [
        {
          "internalType": "string",
          "name": "_name",
          "type": "string"
        },
        {
          "internalType": "uint256",
          "name": "_age",
          "type": "uint256"
        },
        {
          "internalType": "string",
          "name": "_city",
          "type": "string"
        },
        {
          "internalType": "string",
          "name": "_email",
          "type": "string"
        }
      ],
      "name": "registerUser",
      "outputs": [],
      "stateMutability": "nonpayable",
      "type": "function"
    },
    {
      "inputs": [
        {
          "internalType": "address",
          "name": "_userId",
          "type": "address"
        }
      ],
      "name": "verifyUser",
      "outputs": [],
      "stateMutability": "nonpayable",
      "type": "function"
    },
    {
      "inputs": [
        {
          "internalType": "address",
          "name": "id",
          "type": "address"
        }
      ],
      "name": "isUserVerified",
      "outputs": [
        {
          "internalType": "bool",
          "name": "",
          "type": "bool"
        }
      ],
      "stateMutability": "view",
      "type": "function",
      "constant": true
    },
    {
      "inputs": [],
      "name": "ReturnAllUserList",
      "outputs": [
        {
          "internalType": "address[]",
          "name": "",
          "type": "address[]"
        }
      ],
      "stateMutability": "view",
      "type": "function",
      "constant": true
    },
    {
      "inputs": [
        {
          "internalType": "uint256",
          "name": "_area",
          "type": "uint256"
        },
        {
          "internalType": "string",
          "name": "_address",
          "type": "string"
        },
        {
          "internalType": "uint256",
          "name": "landPrice",
          "type": "uint256"
        },
        {
          "internalType": "string",
          "name": "_allLatiLongi",
          "type": "string"
        },
        {
          "internalType": "string",
          "name": "_surveyNum",
          "type": "string"
        }
      ],
      "name": "addLand",
      "outputs": [],
      "stateMutability": "nonpayable",
      "type": "function"
    },
    {
      "inputs": [],
      "name": "ReturnAllLandList",
      "outputs": [
        {
          "internalType": "uint256[]",
          "name": "",
          "type": "uint256[]"
        }
      ],
      "stateMutability": "view",
      "type": "function",
      "constant": true
    },
    {
      "inputs": [
        {
          "internalType": "uint256",
          "name": "_id",
          "type": "uint256"
        }
      ],
      "name": "verifyLand",
      "outputs": [],
      "stateMutability": "nonpayable",
      "type": "function"
    },
    {
      "inputs": [
        {
          "internalType": "uint256",
          "name": "id",
          "type": "uint256"
        }
      ],
      "name": "isLandVerified",
      "outputs": [
        {
          "internalType": "bool",
          "name": "",
          "type": "bool"
        }
      ],
      "stateMutability": "view",
      "type": "function",
      "constant": true
    },
    {
      "inputs": [
        {
          "internalType": "address",
          "name": "id",
          "type": "address"
        }
      ],
      "name": "myAllLands",
      "outputs": [
        {
          "internalType": "uint256[]",
          "name": "",
          "type": "uint256[]"
        }
      ],
      "stateMutability": "view",
      "type": "function",
      "constant": true
    },
    {
      "inputs": [
        {
          "internalType": "uint256",
          "name": "id",
          "type": "uint256"
        }
      ],
      "name": "makeItforSell",
      "outputs": [],
      "stateMutability": "nonpayable",
      "type": "function"
    },
    {
      "inputs": [
        {
          "internalType": "uint256",
          "name": "_landId",
          "type": "uint256"
        }
      ],
      "name": "requestforBuy",
      "outputs": [],
      "stateMutability": "nonpayable",
      "type": "function"
    },
    {
      "inputs": [],
      "name": "myReceivedLandRequests",
      "outputs": [
        {
          "internalType": "uint256[]",
          "name": "",
          "type": "uint256[]"
        }
      ],
      "stateMutability": "view",
      "type": "function",
      "constant": true
    },
    {
      "inputs": [],
      "name": "mySentLandRequests",
      "outputs": [
        {
          "internalType": "uint256[]",
          "name": "",
          "type": "uint256[]"
        }
      ],
      "stateMutability": "view",
      "type": "function",
      "constant": true
    },
    {
      "inputs": [
        {
          "internalType": "uint256",
          "name": "_requestId",
          "type": "uint256"
        }
      ],
      "name": "acceptRequest",
      "outputs": [],
      "stateMutability": "nonpayable",
      "type": "function"
    },
    {
      "inputs": [
        {
          "internalType": "uint256",
          "name": "_requestId",
          "type": "uint256"
        }
      ],
      "name": "rejectRequest",
      "outputs": [],
      "stateMutability": "nonpayable",
      "type": "function"
    },
    {
      "inputs": [
        {
          "internalType": "uint256",
          "name": "id",
          "type": "uint256"
        }
      ],
      "name": "requesteStatus",
      "outputs": [
        {
          "internalType": "bool",
          "name": "",
          "type": "bool"
        }
      ],
      "stateMutability": "view",
      "type": "function",
      "constant": true
    },
    {
      "inputs": [
        {
          "internalType": "uint256",
          "name": "id",
          "type": "uint256"
        }
      ],
      "name": "landPrice",
      "outputs": [
        {
          "internalType": "uint256",
          "name": "",
          "type": "uint256"
        }
      ],
      "stateMutability": "view",
      "type": "function",
      "constant": true
    },
    {
      "inputs": [
        {
          "internalType": "uint256",
          "name": "_requestId",
          "type": "uint256"
        }
      ],
      "name": "makePayment",
      "outputs": [],
      "stateMutability": "payable",
      "type": "function",
      "payable": true
    },
    {
      "inputs": [],
      "name": "returnPaymentDoneList",
      "outputs": [
        {
          "internalType": "uint256[]",
          "name": "",
          "type": "uint256[]"
        }
      ],
      "stateMutability": "view",
      "type": "function",
      "constant": true
    },
    {
      "inputs": [
        {
          "internalType": "address payable",
          "name": "_reveiver",
          "type": "address"
        }
      ],
      "name": "makePaymentTestFun",
      "outputs": [],
      "stateMutability": "payable",
      "type": "function",
      "payable": true
    }
  ],
  "bytecode": "0x608060405234801561001057600080fd5b50336000806101000a81548173ffffffffffffffffffffffffffffffffffffffff021916908373ffffffffffffffffffffffffffffffffffffffff160217905550613963806100606000396000f3fe6080604052600436106101f95760003560e01c80639c32e3b41161010d578063d251839b116100a0578063d8513de41161006f578063d8513de4146113f3578063de11768814611444578063e165af87146114ab578063e261f1e514611512578063f9c43bdf146116e2576101f9565b8063d251839b1461112e578063d3b368c01461119a578063d61ff68c146111d5578063d72ca9ec146113a4576101f9565b8063b7bb80f9116100dc578063b7bb80f914610c17578063c26e11eb14610e17578063c6dcdc3714610e52578063d196ebf214611088576101f9565b80639c32e3b414610a2d578063a846fc8f14610a99578063ace417e014610b05578063b10a30ed14610b6c576101f9565b80634ba1f0981161019057806364efa0021161015f57806364efa0021461074f5780636cbf6cf81461091c5780637517e00f1461096d57806378f7c83f146109be578063995a8d96146109e9576101f9565b80634ba1f098146106295780634d813120146106645780635114cb52146106b5578063553a998d146106e3576101f9565b80632d7788db116101cc5780632d7788db146103275780633ead67b514610362578063493c80f1146103b3578063499701b2146105bd576101f9565b806307973ccf146101fe578063163f7522146102295780631c9afd0f1461029057806323393d77146102bb575b600080fd5b34801561020a57600080fd5b5061021361171d565b6040518082815260200191505060405180910390f35b34801561023557600080fd5b506102786004803603602081101561024c57600080fd5b81019080803573ffffffffffffffffffffffffffffffffffffffff169060200190929190505050611723565b60405180821515815260200191505060405180910390f35b34801561029c57600080fd5b506102a561178a565b6040518082815260200191505060405180910390f35b3480156102c757600080fd5b506102d0611790565b6040518080602001828103825283818151815260200191508051906020019060200280838360005b838110156103135780820151818401526020810190506102f8565b505050509050019250505060405180910390f35b34801561033357600080fd5b506103606004803603602081101561034a57600080fd5b81019080803590602001909291905050506117fa565b005b34801561036e57600080fd5b506103b16004803603602081101561038557600080fd5b81019080803573ffffffffffffffffffffffffffffffffffffffff1690602001909291905050506118a3565b005b3480156103bf57600080fd5b506105bb600480360360a08110156103d657600080fd5b8101908080359060200190929190803590602001906401000000008111156103fd57600080fd5b82018360208201111561040f57600080fd5b8035906020019184600183028401116401000000008311171561043157600080fd5b91908080601f016020809104026020016040519081016040528093929190818152602001838380828437600081840152601f19601f820116905080830192505050505050509192919290803590602001909291908035906020019064010000000081111561049e57600080fd5b8201836020820111156104b057600080fd5b803590602001918460018302840111640100000000831117156104d257600080fd5b91908080601f016020809104026020016040519081016040528093929190818152602001838380828437600081840152601f19601f8201169050808301925050505050505091929192908035906020019064010000000081111561053557600080fd5b82018360208201111561054757600080fd5b8035906020019184600183028401116401000000008311171561056957600080fd5b91908080601f016020809104026020016040519081016040528093929190818152602001838380828437600081840152601f19601f8201169050808301925050505050505091929192905050506119a7565b005b3480156105c957600080fd5b506105d2611bea565b6040518080602001828103825283818151815260200191508051906020019060200280838360005b838110156106155780820151818401526020810190506105fa565b505050509050019250505060405180910390f35b34801561063557600080fd5b506106626004803603602081101561064c57600080fd5b8101908080359060200190929190505050611c7f565b005b34801561067057600080fd5b506106b36004803603602081101561068757600080fd5b81019080803573ffffffffffffffffffffffffffffffffffffffff169060200190929190505050611d28565b005b6106e1600480360360208110156106cb57600080fd5b8101908080359060200190929190505050611d98565b005b3480156106ef57600080fd5b506106f8611f83565b6040518080602001828103825283818151815260200191508051906020019060200280838360005b8381101561073b578082015181840152602081019050610720565b505050509050019250505060405180910390f35b34801561075b57600080fd5b5061079e6004803603602081101561077257600080fd5b81019080803573ffffffffffffffffffffffffffffffffffffffff169060200190929190505050612023565b604051808781526020018673ffffffffffffffffffffffffffffffffffffffff168152602001806020018581526020018060200180602001848103845288818151815260200191508051906020019080838360005b8381101561080e5780820151818401526020810190506107f3565b50505050905090810190601f16801561083b5780820380516001836020036101000a031916815260200191505b50848103835286818151815260200191508051906020019080838360005b83811015610874578082015181840152602081019050610859565b50505050905090810190601f1680156108a15780820380516001836020036101000a031916815260200191505b50848103825285818151815260200191508051906020019080838360005b838110156108da5780820151818401526020810190506108bf565b50505050905090810190601f1680156109075780820380516001836020036101000a031916815260200191505b50995050505050505050505060405180910390f35b34801561092857600080fd5b506109556004803603602081101561093f57600080fd5b8101908080359060200190929190505050612247565b60405180821515815260200191505060405180910390f35b34801561097957600080fd5b506109bc6004803603602081101561099057600080fd5b81019080803573ffffffffffffffffffffffffffffffffffffffff169060200190929190505050612274565b005b3480156109ca57600080fd5b506109d361260d565b6040518082815260200191505060405180910390f35b610a2b600480360360208110156109ff57600080fd5b81019080803573ffffffffffffffffffffffffffffffffffffffff169060200190929190505050612613565b005b348015610a3957600080fd5b50610a4261265d565b6040518080602001828103825283818151815260200191508051906020019060200280838360005b83811015610a85578082015181840152602081019050610a6a565b505050509050019250505060405180910390f35b348015610aa557600080fd5b50610aae6126f2565b6040518080602001828103825283818151815260200191508051906020019060200280838360005b83811015610af1578082015181840152602081019050610ad6565b505050509050019250505060405180910390f35b348015610b1157600080fd5b50610b5460048036036020811015610b2857600080fd5b81019080803573ffffffffffffffffffffffffffffffffffffffff16906020019092919050505061275c565b60405180821515815260200191505060405180910390f35b348015610b7857600080fd5b50610ba560048036036020811015610b8f57600080fd5b81019080803590602001909291905050506127b5565b604051808781526020018673ffffffffffffffffffffffffffffffffffffffff1681526020018573ffffffffffffffffffffffffffffffffffffffff168152602001848152602001836004811115610bf957fe5b81526020018215158152602001965050505050505060405180910390f35b348015610c2357600080fd5b50610e1560048036036080811015610c3a57600080fd5b8101908080359060200190640100000000811115610c5757600080fd5b820183602082011115610c6957600080fd5b80359060200191846001830284011164010000000083111715610c8b57600080fd5b91908080601f016020809104026020016040519081016040528093929190818152602001838380828437600081840152601f19601f8201169050808301925050505050505091929192908035906020019092919080359060200190640100000000811115610cf857600080fd5b820183602082011115610d0a57600080fd5b80359060200191846001830284011164010000000083111715610d2c57600080fd5b91908080601f016020809104026020016040519081016040528093929190818152602001838380828437600081840152601f19601f82011690508083019250505050505050919291929080359060200190640100000000811115610d8f57600080fd5b820183602082011115610da157600080fd5b80359060200191846001830284011164010000000083111715610dc357600080fd5b91908080601f016020809104026020016040519081016040528093929190818152602001838380828437600081840152601f19601f82011690508083019250505050505050919291929050505061284b565b005b348015610e2357600080fd5b50610e5060048036036020811015610e3a57600080fd5b8101908080359060200190929190505050612b2b565b005b348015610e5e57600080fd5b50611070600480360360a0811015610e7557600080fd5b81019080803573ffffffffffffffffffffffffffffffffffffffff16906020019092919080359060200190640100000000811115610eb257600080fd5b820183602082011115610ec457600080fd5b80359060200191846001830284011164010000000083111715610ee657600080fd5b91908080601f016020809104026020016040519081016040528093929190818152602001838380828437600081840152601f19601f8201169050808301925050505050505091929192908035906020019092919080359060200190640100000000811115610f5357600080fd5b820183602082011115610f6557600080fd5b80359060200191846001830284011164010000000083111715610f8757600080fd5b91908080601f016020809104026020016040519081016040528093929190818152602001838380828437600081840152601f19601f82011690508083019250505050505050919291929080359060200190640100000000811115610fea57600080fd5b820183602082011115610ffc57600080fd5b8035906020019184600183028401116401000000008311171561101e57600080fd5b91908080601f016020809104026020016040519081016040528093929190818152602001838380828437600081840152601f19601f820116905080830192505050505050509192919290505050612bcb565b60405180821515815260200191505060405180910390f35b34801561109457600080fd5b506110d7600480360360208110156110ab57600080fd5b81019080803573ffffffffffffffffffffffffffffffffffffffff169060200190929190505050612e95565b6040518080602001828103825283818151815260200191508051906020019060200280838360005b8381101561111a5780820151818401526020810190506110ff565b505050509050019250505060405180910390f35b34801561113a57600080fd5b50611143612f2c565b6040518080602001828103825283818151815260200191508051906020019060200280838360005b8381101561118657808201518184015260208101905061116b565b505050509050019250505060405180910390f35b3480156111a657600080fd5b506111d3600480360360208110156111bd57600080fd5b8101908080359060200190929190505050612fcc565b005b3480156111e157600080fd5b50611224600480360360208110156111f857600080fd5b81019080803573ffffffffffffffffffffffffffffffffffffffff1690602001909291905050506132ad565b604051808773ffffffffffffffffffffffffffffffffffffffff1681526020018060200186815260200180602001806020018515158152602001848103845289818151815260200191508051906020019080838360005b8381101561129657808201518184015260208101905061127b565b50505050905090810190601f1680156112c35780820380516001836020036101000a031916815260200191505b50848103835287818151815260200191508051906020019080838360005b838110156112fc5780820151818401526020810190506112e1565b50505050905090810190601f1680156113295780820380516001836020036101000a031916815260200191505b50848103825286818151815260200191508051906020019080838360005b83811015611362578082015181840152602081019050611347565b50505050905090810190601f16801561138f5780820380516001836020036101000a031916815260200191505b50995050505050505050505060405180910390f35b3480156113b057600080fd5b506113dd600480360360208110156113c757600080fd5b81019080803590602001909291905050506134de565b6040518082815260200191505060405180910390f35b3480156113ff57600080fd5b5061142c6004803603602081101561141657600080fd5b81019080803590602001909291905050506134fe565b60405180821515815260200191505060405180910390f35b34801561145057600080fd5b506114936004803603602081101561146757600080fd5b81019080803573ffffffffffffffffffffffffffffffffffffffff16906020019092919050505061352b565b60405180821515815260200191505060405180910390f35b3480156114b757600080fd5b506114fa600480360360208110156114ce57600080fd5b81019080803573ffffffffffffffffffffffffffffffffffffffff169060200190929190505050613595565b60405180821515815260200191505060405180910390f35b34801561151e57600080fd5b5061154b6004803603602081101561153557600080fd5b81019080803590602001909291905050506135fc565b604051808a815260200189815260200180602001888152602001806020018060200187151581526020018673ffffffffffffffffffffffffffffffffffffffff168152602001851515815260200184810384528b818151815260200191508051906020019080838360005b838110156115d15780820151818401526020810190506115b6565b50505050905090810190601f1680156115fe5780820380516001836020036101000a031916815260200191505b50848103835289818151815260200191508051906020019080838360005b8381101561163757808201518184015260208101905061161c565b50505050905090810190601f1680156116645780820380516001836020036101000a031916815260200191505b50848103825288818151815260200191508051906020019080838360005b8381101561169d578082015181840152602081019050611682565b50505050905090810190601f1680156116ca5780820380516001836020036101000a031916815260200191505b509c5050505050505050505050505060405180910390f35b3480156116ee57600080fd5b5061171b6004803603602081101561170557600080fd5b810190808035906020019092919050505061384c565b005b60025481565b6000600c60008373ffffffffffffffffffffffffffffffffffffffff1673ffffffffffffffffffffffffffffffffffffffff16815260200190815260200160002060009054906101000a900460ff16156117805760019050611785565b600090505b919050565b60035481565b606060126000600181526020019081526020016000208054806020026020016040519081016040528092919081815260200182805480156117f057602002820191906000526020600020905b8154815260200190600101908083116117dc575b5050505050905090565b3373ffffffffffffffffffffffffffffffffffffffff16600f600083815260200190815260200160002060010160009054906101000a900473ffffffffffffffffffffffffffffffffffffffff1673ffffffffffffffffffffffffffffffffffffffff161461186857600080fd5b6002600f600083815260200190815260200160002060040160006101000a81548160ff0219169083600481111561189b57fe5b021790555050565b60008054906101000a900473ffffffffffffffffffffffffffffffffffffffff1673ffffffffffffffffffffffffffffffffffffffff163373ffffffffffffffffffffffffffffffffffffffff1614611964576040517f08c379a00000000000000000000000000000000000000000000000000000000081526004018080602001828103825260198152602001807f796f7520617265206e6f7420636f6e74726163744f776e65720000000000000081525060200191505060405180910390fd5b806000806101000a81548173ffffffffffffffffffffffffffffffffffffffff021916908373ffffffffffffffffffffffffffffffffffffffff16021790555050565b6119b03361275c565b6119b957600080fd5b60036000815480929190600101919050555060405180610120016040528060035481526020018681526020018581526020018481526020018381526020018281526020016000151581526020013373ffffffffffffffffffffffffffffffffffffffff16815260200160001515815250600e6000600354815260200190815260200160002060008201518160000155602082015181600101556040820151816002019080519060200190611a6e929190613890565b50606082015181600301556080820151816004019080519060200190611a95929190613890565b5060a0820151816005019080519060200190611ab2929190613890565b5060c08201518160060160006101000a81548160ff02191690831515021790555060e08201518160060160016101000a81548173ffffffffffffffffffffffffffffffffffffffff021916908373ffffffffffffffffffffffffffffffffffffffff1602179055506101008201518160060160156101000a81548160ff021916908315150217905550905050600d60003373ffffffffffffffffffffffffffffffffffffffff1673ffffffffffffffffffffffffffffffffffffffff1681526020019081526020016000206003549080600181540180825580915050600190039060005260206000200160009091909190915055601260006001815260200190815260200160002060035490806001815401808255809150506001900390600052602060002001600090919091909150555050505050565b6060601060003373ffffffffffffffffffffffffffffffffffffffff1673ffffffffffffffffffffffffffffffffffffffff168152602001908152602001600020805480602002602001604051908101604052809291908181526020018280548015611c7557602002820191906000526020600020905b815481526020019060010190808311611c61575b5050505050905090565b3373ffffffffffffffffffffffffffffffffffffffff16600f600083815260200190815260200160002060010160009054906101000a900473ffffffffffffffffffffffffffffffffffffffff1673ffffffffffffffffffffffffffffffffffffffff1614611ced57600080fd5b6001600f600083815260200190815260200160002060040160006101000a81548160ff02191690836004811115611d2057fe5b021790555050565b611d3133613595565b611d3a57600080fd5b6001600960008373ffffffffffffffffffffffffffffffffffffffff1673ffffffffffffffffffffffffffffffffffffffff16815260200190815260200160002060050160006101000a81548160ff02191690831515021790555050565b3373ffffffffffffffffffffffffffffffffffffffff16600f600083815260200190815260200160002060020160009054906101000a900473ffffffffffffffffffffffffffffffffffffffff1673ffffffffffffffffffffffffffffffffffffffff16148015611e42575060016004811115611e1157fe5b600f600083815260200190815260200160002060040160009054906101000a900460ff166004811115611e4057fe5b145b611e4b57600080fd5b6003600f600083815260200190815260200160002060040160006101000a81548160ff02191690836004811115611e7e57fe5b0217905550600e6000600f600084815260200190815260200160002060030154815260200190815260200160002060060160019054906101000a900473ffffffffffffffffffffffffffffffffffffffff1673ffffffffffffffffffffffffffffffffffffffff166108fc349081150290604051600060405180830381858888f19350505050158015611f15573d6000803e3d6000fd5b506001600f600083815260200190815260200160002060040160016101000a81548160ff021916908315150217905550601360006001815260200190815260200160002081908060018154018082558091505060019003906000526020600020016000909190919091505550565b6060600b60006001815260200190815260200160002080548060200260200160405190810160405280929190818152602001828054801561201957602002820191906000526020600020905b8160009054906101000a900473ffffffffffffffffffffffffffffffffffffffff1673ffffffffffffffffffffffffffffffffffffffff1681526020019060010190808311611fcf575b5050505050905090565b60066020528060005260406000206000915090508060000154908060010160009054906101000a900473ffffffffffffffffffffffffffffffffffffffff1690806002018054600181600116156101000203166002900480601f0160208091040260200160405190810160405280929190818152602001828054600181600116156101000203166002900480156120fb5780601f106120d0576101008083540402835291602001916120fb565b820191906000526020600020905b8154815290600101906020018083116120de57829003601f168201915b505050505090806003015490806004018054600181600116156101000203166002900480601f01602080910402602001604051908101604052809291908181526020018280546001816001161561010002031660029004801561219f5780601f106121745761010080835404028352916020019161219f565b820191906000526020600020905b81548152906001019060200180831161218257829003601f168201915b505050505090806005018054600181600116156101000203166002900480601f01602080910402602001604051908101604052809291908181526020018280546001816001161561010002031660029004801561223d5780601f106122125761010080835404028352916020019161223d565b820191906000526020600020905b81548152906001019060200180831161222057829003601f168201915b5050505050905086565b6000600e600083815260200190815260200160002060060160159054906101000a900460ff169050919050565b60008054906101000a900473ffffffffffffffffffffffffffffffffffffffff1673ffffffffffffffffffffffffffffffffffffffff163373ffffffffffffffffffffffffffffffffffffffff1614612335576040517f08c379a00000000000000000000000000000000000000000000000000000000081526004018080602001828103825260198152602001807f596f7520617265206e6f7420636f6e74726163744f776e65720000000000000081525060200191505060405180910390fd5b600860008273ffffffffffffffffffffffffffffffffffffffff1673ffffffffffffffffffffffffffffffffffffffff16815260200190815260200160002060009054906101000a900460ff166123f4576040517f08c379a00000000000000000000000000000000000000000000000000000000081526004018080602001828103825260188152602001807f4c616e6420496e73706563746f72206e6f7420666f756e64000000000000000081525060200191505060405180910390fd5b6000600860008373ffffffffffffffffffffffffffffffffffffffff1673ffffffffffffffffffffffffffffffffffffffff16815260200190815260200160002060006101000a81548160ff0219169083151502179055506000600760006001815260200190815260200160002080549050905060005b81811015612608578273ffffffffffffffffffffffffffffffffffffffff16600760006001815260200190815260200160002082815481106124a957fe5b9060005260206000200160009054906101000a900473ffffffffffffffffffffffffffffffffffffffff1673ffffffffffffffffffffffffffffffffffffffff1614156125fb576007600060018152602001908152602001600020600183038154811061251257fe5b9060005260206000200160009054906101000a900473ffffffffffffffffffffffffffffffffffffffff166007600060018152602001908152602001600020828154811061255c57fe5b9060005260206000200160006101000a81548173ffffffffffffffffffffffffffffffffffffffff021916908373ffffffffffffffffffffffffffffffffffffffff16021790555060076000600181526020019081526020016000208054806125c157fe5b6001900381819060005260206000200160006101000a81549073ffffffffffffffffffffffffffffffffffffffff02191690559055612608565b808060010191505061246b565b505050565b60045481565b8073ffffffffffffffffffffffffffffffffffffffff166108fc349081150290604051600060405180830381858888f19350505050158015612659573d6000803e3d6000fd5b5050565b6060601160003373ffffffffffffffffffffffffffffffffffffffff1673ffffffffffffffffffffffffffffffffffffffff1681526020019081526020016000208054806020026020016040519081016040528092919081815260200182805480156126e857602002820191906000526020600020905b8154815260200190600101908083116126d4575b5050505050905090565b6060601360006001815260200190815260200160002080548060200260200160405190810160405280929190818152602001828054801561275257602002820191906000526020600020905b81548152602001906001019080831161273e575b5050505050905090565b6000600960008373ffffffffffffffffffffffffffffffffffffffff1673ffffffffffffffffffffffffffffffffffffffff16815260200190815260200160002060050160009054906101000a900460ff169050919050565b600f6020528060005260406000206000915090508060000154908060010160009054906101000a900473ffffffffffffffffffffffffffffffffffffffff16908060020160009054906101000a900473ffffffffffffffffffffffffffffffffffffffff16908060030154908060040160009054906101000a900460ff16908060040160019054906101000a900460ff16905086565b600c60003373ffffffffffffffffffffffffffffffffffffffff1673ffffffffffffffffffffffffffffffffffffffff16815260200190815260200160002060009054906101000a900460ff16156128a257600080fd5b6001600c60003373ffffffffffffffffffffffffffffffffffffffff1673ffffffffffffffffffffffffffffffffffffffff16815260200190815260200160002060006101000a81548160ff021916908315150217905550600260008154809291906001019190505550600b600060018152602001908152602001600020339080600181540180825580915050600190039060005260206000200160009091909190916101000a81548173ffffffffffffffffffffffffffffffffffffffff021916908373ffffffffffffffffffffffffffffffffffffffff16021790555033600a6000600254815260200190815260200160002060006101000a81548173ffffffffffffffffffffffffffffffffffffffff021916908373ffffffffffffffffffffffffffffffffffffffff1602179055506040518060c001604052803373ffffffffffffffffffffffffffffffffffffffff16815260200185815260200184815260200183815260200182815260200160001515815250600960003373ffffffffffffffffffffffffffffffffffffffff1673ffffffffffffffffffffffffffffffffffffffff16815260200190815260200160002060008201518160000160006101000a81548173ffffffffffffffffffffffffffffffffffffffff021916908373ffffffffffffffffffffffffffffffffffffffff1602179055506020820151816001019080519060200190612abd929190613890565b50604082015181600201556060820151816003019080519060200190612ae4929190613890565b506080820151816004019080519060200190612b01929190613890565b5060a08201518160050160006101000a81548160ff02191690831515021790555090505050505050565b3373ffffffffffffffffffffffffffffffffffffffff16600e600083815260200190815260200160002060060160019054906101000a900473ffffffffffffffffffffffffffffffffffffffff1673ffffffffffffffffffffffffffffffffffffffff1614612b9957600080fd5b6001600e600083815260200190815260200160002060060160006101000a81548160ff02191690831515021790555050565b60003373ffffffffffffffffffffffffffffffffffffffff1660008054906101000a900473ffffffffffffffffffffffffffffffffffffffff1673ffffffffffffffffffffffffffffffffffffffff1614612c295760009050612e8c565b3373ffffffffffffffffffffffffffffffffffffffff1660008054906101000a900473ffffffffffffffffffffffffffffffffffffffff1673ffffffffffffffffffffffffffffffffffffffff1614612c8157600080fd5b6001600860008873ffffffffffffffffffffffffffffffffffffffff1673ffffffffffffffffffffffffffffffffffffffff16815260200190815260200160002060006101000a81548160ff0219169083151502179055506007600060018152602001908152602001600020869080600181540180825580915050600190039060005260206000200160009091909190916101000a81548173ffffffffffffffffffffffffffffffffffffffff021916908373ffffffffffffffffffffffffffffffffffffffff1602179055506040518060c0016040528060015481526020018773ffffffffffffffffffffffffffffffffffffffff16815260200186815260200185815260200184815260200183815250600660008873ffffffffffffffffffffffffffffffffffffffff1673ffffffffffffffffffffffffffffffffffffffff1681526020019081526020016000206000820151816000015560208201518160010160006101000a81548173ffffffffffffffffffffffffffffffffffffffff021916908373ffffffffffffffffffffffffffffffffffffffff1602179055506040820151816002019080519060200190612e3f929190613890565b50606082015181600301556080820151816004019080519060200190612e66929190613890565b5060a0820151816005019080519060200190612e83929190613890565b50905050600190505b95945050505050565b6060600d60008373ffffffffffffffffffffffffffffffffffffffff1673ffffffffffffffffffffffffffffffffffffffff168152602001908152602001600020805480602002602001604051908101604052809291908181526020018280548015612f2057602002820191906000526020600020905b815481526020019060010190808311612f0c575b50505050509050919050565b60606007600060018152602001908152602001600020805480602002602001604051908101604052809291908181526020018280548015612fc257602002820191906000526020600020905b8160009054906101000a900473ffffffffffffffffffffffffffffffffffffffff1673ffffffffffffffffffffffffffffffffffffffff1681526020019060010190808311612f78575b5050505050905090565b612fd53361275c565b8015612fe65750612fe581612247565b5b612fef57600080fd5b6005600081548092919060010191905055506040518060c001604052806005548152602001600e600084815260200190815260200160002060060160019054906101000a900473ffffffffffffffffffffffffffffffffffffffff1673ffffffffffffffffffffffffffffffffffffffff1681526020013373ffffffffffffffffffffffffffffffffffffffff1681526020018281526020016000600481111561309557fe5b815260200160001515815250600f600060055481526020019081526020016000206000820151816000015560208201518160010160006101000a81548173ffffffffffffffffffffffffffffffffffffffff021916908373ffffffffffffffffffffffffffffffffffffffff16021790555060408201518160020160006101000a81548173ffffffffffffffffffffffffffffffffffffffff021916908373ffffffffffffffffffffffffffffffffffffffff1602179055506060820151816003015560808201518160040160006101000a81548160ff0219169083600481111561317c57fe5b021790555060a08201518160040160016101000a81548160ff02191690831515021790555090505060106000600e600084815260200190815260200160002060060160019054906101000a900473ffffffffffffffffffffffffffffffffffffffff1673ffffffffffffffffffffffffffffffffffffffff1673ffffffffffffffffffffffffffffffffffffffff1681526020019081526020016000206005549080600181540180825580915050600190039060005260206000200160009091909190915055601160003373ffffffffffffffffffffffffffffffffffffffff1673ffffffffffffffffffffffffffffffffffffffff168152602001908152602001600020600554908060018154018082558091505060019003906000526020600020016000909190919091505550565b60096020528060005260406000206000915090508060000160009054906101000a900473ffffffffffffffffffffffffffffffffffffffff1690806001018054600181600116156101000203166002900480601f01602080910402602001604051908101604052809291908181526020018280546001816001161561010002031660029004801561337f5780601f106133545761010080835404028352916020019161337f565b820191906000526020600020905b81548152906001019060200180831161336257829003601f168201915b505050505090806002015490806003018054600181600116156101000203166002900480601f0160208091040260200160405190810160405280929190818152602001828054600181600116156101000203166002900480156134235780601f106133f857610100808354040283529160200191613423565b820191906000526020600020905b81548152906001019060200180831161340657829003601f168201915b505050505090806004018054600181600116156101000203166002900480601f0160208091040260200160405190810160405280929190818152602001828054600181600116156101000203166002900480156134c15780601f10613496576101008083540402835291602001916134c1565b820191906000526020600020905b8154815290600101906020018083116134a457829003601f168201915b5050505050908060050160009054906101000a900460ff16905086565b6000600e6000838152602001908152602001600020600301549050919050565b6000600f600083815260200190815260200160002060040160019054906101000a900460ff169050919050565b60008060009054906101000a900473ffffffffffffffffffffffffffffffffffffffff1673ffffffffffffffffffffffffffffffffffffffff168273ffffffffffffffffffffffffffffffffffffffff16141561358b5760019050613590565b600090505b919050565b6000600860008373ffffffffffffffffffffffffffffffffffffffff1673ffffffffffffffffffffffffffffffffffffffff16815260200190815260200160002060009054906101000a900460ff16156135f257600190506135f7565b600090505b919050565b600e602052806000526040600020600091509050806000015490806001015490806002018054600181600116156101000203166002900480601f0160208091040260200160405190810160405280929190818152602001828054600181600116156101000203166002900480156136b45780601f10613689576101008083540402835291602001916136b4565b820191906000526020600020905b81548152906001019060200180831161369757829003601f168201915b505050505090806003015490806004018054600181600116156101000203166002900480601f0160208091040260200160405190810160405280929190818152602001828054600181600116156101000203166002900480156137585780601f1061372d57610100808354040283529160200191613758565b820191906000526020600020905b81548152906001019060200180831161373b57829003601f168201915b505050505090806005018054600181600116156101000203166002900480601f0160208091040260200160405190810160405280929190818152602001828054600181600116156101000203166002900480156137f65780601f106137cb576101008083540402835291602001916137f6565b820191906000526020600020905b8154815290600101906020018083116137d957829003601f168201915b5050505050908060060160009054906101000a900460ff16908060060160019054906101000a900473ffffffffffffffffffffffffffffffffffffffff16908060060160159054906101000a900460ff16905089565b61385533613595565b61385e57600080fd5b6001600e600083815260200190815260200160002060060160156101000a81548160ff02191690831515021790555050565b828054600181600116156101000203166002900490600052602060002090601f016020900481019282601f106138d157805160ff19168380011785556138ff565b828001600101855582156138ff579182015b828111156138fe5782518255916020019190600101906138e3565b5b50905061390c9190613910565b5090565b5b80821115613929576000816000905550600101613911565b509056fea2646970667358221220d1dfcbf584c0abe60baebb344f91d51ea91ad68c177edac408b995982ade369564736f6c634300060c0033",
  "immutableReferences": {},
  "source": "// SPDX-License-Identifier: MIT\r\npragma solidity ^0.6.0;\r\n\r\ncontract Land {\r\n    address contractOwner;\r\n\r\n    constructor() public{\r\n        contractOwner = msg.sender;\r\n    }\r\n\r\n    struct Landreg {\r\n        uint id;\r\n        uint area;\r\n        string landAddress;\r\n        uint landPrice;\r\n        string allLatitudeLongitude;\r\n        //string allLongitude;\r\n        string physicalSurveyNumber;\r\n        bool isforSell;\r\n        address payable ownerAddress;\r\n        bool isLandVerified;\r\n    }\r\n\r\n    struct User{\r\n        address id;\r\n        string name;\r\n        uint age;\r\n        string city;\r\n        string email;\r\n        bool isUserVerified;\r\n    }\r\n\r\n    struct LandInspector {\r\n        uint id;\r\n        address _addr;\r\n        string name;\r\n        uint age;\r\n        string designation;\r\n        string city;\r\n    }\r\n\r\n    struct LandRequest{\r\n        uint reqId;\r\n        address payable sellerId;\r\n        address payable buyerId;\r\n        uint landId;\r\n        reqStatus requestStatus;\r\n        bool isPaymentDone;\r\n    }\r\n    enum reqStatus {requested,accepted,rejected,paymentdone,commpleted}\r\n\r\n\r\n    uint inspectorsCount;\r\n    uint public userCount;\r\n    uint public landsCount;\r\n    uint public documentId;\r\n    uint requestCount;\r\n\r\n\r\n    mapping(address => LandInspector) public InspectorMapping;\r\n    mapping(uint => address[]) allLandInspectorList;\r\n    mapping(address => bool)  RegisteredInspectorMapping;\r\n    mapping(address => User) public UserMapping;\r\n    mapping(uint => address)  AllUsers;\r\n    mapping(uint => address[])  allUsersList;\r\n    mapping(address => bool)  RegisteredUserMapping;\r\n    mapping(address => uint[])  MyLands;\r\n    mapping(uint => Landreg) public lands;\r\n    mapping(uint => LandRequest) public LandRequestMapping;\r\n    mapping(address => uint[])  MyReceivedLandRequest;\r\n    mapping(address => uint[])  MySentLandRequest;\r\n    mapping(uint => uint[])  allLandList;\r\n    mapping(uint => uint[])  paymentDoneList;\r\n\r\n\r\n    function isContractOwner(address _addr) public view returns(bool){\r\n        if(_addr==contractOwner)\r\n            return true;\r\n        else\r\n            return false;\r\n    }\r\n\r\n    function changeContractOwner(address _addr)public {\r\n        require(msg.sender==contractOwner,\"you are not contractOwner\");\r\n\r\n        contractOwner=_addr;\r\n    }\r\n\r\n    //-----------------------------------------------LandInspector-----------------------------------------------\r\n\r\n    function addLandInspector(address _addr,string memory _name, uint _age, string memory _designation,string memory _city) public returns(bool){\r\n        if(contractOwner!=msg.sender)\r\n            return false;\r\n        require(contractOwner==msg.sender);\r\n        RegisteredInspectorMapping[_addr]=true;\r\n        allLandInspectorList[1].push(_addr);\r\n        InspectorMapping[_addr] = LandInspector(inspectorsCount,_addr,_name, _age, _designation,_city);\r\n        return true;\r\n    }\r\n\r\n    function ReturnAllLandIncpectorList() public view returns(address[] memory)\r\n    {\r\n        return allLandInspectorList[1];\r\n    }\r\n\r\n    function removeLandInspector(address _addr) public{\r\n        require(msg.sender==contractOwner,\"You are not contractOwner\");\r\n        require(RegisteredInspectorMapping[_addr],\"Land Inspector not found\");\r\n        RegisteredInspectorMapping[_addr]=false;\r\n\r\n\r\n        uint len=allLandInspectorList[1].length;\r\n        for(uint i=0;i<len;i++)\r\n        {\r\n            if(allLandInspectorList[1][i]==_addr)\r\n            {\r\n                allLandInspectorList[1][i]=allLandInspectorList[1][len-1];\r\n                allLandInspectorList[1].pop();\r\n                break;\r\n            }\r\n        }\r\n    }\r\n\r\n    function isLandInspector(address _id) public view returns (bool) {\r\n        if(RegisteredInspectorMapping[_id]){\r\n            return true;\r\n        }else{\r\n            return false;\r\n        }\r\n    }\r\n\r\n\r\n\r\n    //-----------------------------------------------User-----------------------------------------------\r\n\r\n    function isUserRegistered(address _addr) public view returns(bool)\r\n    {\r\n        if(RegisteredUserMapping[_addr]){\r\n            return true;\r\n        }else{\r\n            return false;\r\n        }\r\n    }\r\n\r\n    function registerUser(string memory _name, uint _age, string memory _city, string memory _email\r\n    ) public {\r\n\r\n        require(!RegisteredUserMapping[msg.sender]);\r\n\r\n        RegisteredUserMapping[msg.sender] = true;\r\n        userCount++;\r\n        allUsersList[1].push(msg.sender);\r\n        AllUsers[userCount]=msg.sender;\r\n        UserMapping[msg.sender] = User(msg.sender, _name, _age, _city,_email, false);\r\n        //emit Registration(msg.sender);\r\n    }\r\n\r\n    function verifyUser(address _userId) public{\r\n        require(isLandInspector(msg.sender));\r\n        UserMapping[_userId].isUserVerified=true;\r\n    }\r\n    function isUserVerified(address id) public view returns(bool){\r\n        return UserMapping[id].isUserVerified;\r\n    }\r\n    function ReturnAllUserList() public view returns(address[] memory)\r\n    {\r\n        return allUsersList[1];\r\n    }\r\n\r\n\r\n    //-----------------------------------------------Land-----------------------------------------------\r\n    function addLand(uint _area, string memory _address, uint landPrice,string memory _allLatiLongi, string memory _surveyNum) public {\r\n        require(isUserVerified(msg.sender));\r\n        landsCount++;\r\n        lands[landsCount] = Landreg(landsCount, _area, _address, landPrice,_allLatiLongi, _surveyNum,false,msg.sender,false);\r\n        MyLands[msg.sender].push(landsCount);\r\n        allLandList[1].push(landsCount);\r\n        // emit AddingLand(landsCount);\r\n    }\r\n\r\n    function ReturnAllLandList() public view returns(uint[] memory)\r\n    {\r\n        return allLandList[1];\r\n    }\r\n\r\n    function verifyLand(uint _id) public{\r\n        require(isLandInspector(msg.sender));\r\n        lands[_id].isLandVerified=true;\r\n    }\r\n    function isLandVerified(uint id) public view returns(bool){\r\n        return lands[id].isLandVerified;\r\n    }\r\n\r\n    function myAllLands(address id) public view returns( uint[] memory){\r\n        return MyLands[id];\r\n    }\r\n\r\n\r\n    function makeItforSell(uint id) public{\r\n        require(lands[id].ownerAddress==msg.sender);\r\n        lands[id].isforSell=true;\r\n    }\r\n\r\n    function requestforBuy(uint _landId) public\r\n    {\r\n        require(isUserVerified(msg.sender) && isLandVerified(_landId));\r\n        requestCount++;\r\n        LandRequestMapping[requestCount]=LandRequest(requestCount,lands[_landId].ownerAddress,msg.sender,_landId,reqStatus.requested,false);\r\n        MyReceivedLandRequest[lands[_landId].ownerAddress].push(requestCount);\r\n        MySentLandRequest[msg.sender].push(requestCount);\r\n    }\r\n\r\n    function myReceivedLandRequests() public view returns(uint[] memory)\r\n    {\r\n        return MyReceivedLandRequest[msg.sender];\r\n    }\r\n    function mySentLandRequests() public view returns(uint[] memory)\r\n    {\r\n        return MySentLandRequest[msg.sender];\r\n    }\r\n    function acceptRequest(uint _requestId) public\r\n    {\r\n        require(LandRequestMapping[_requestId].sellerId==msg.sender);\r\n        LandRequestMapping[_requestId].requestStatus=reqStatus.accepted;\r\n    }\r\n    function rejectRequest(uint _requestId) public\r\n    {\r\n        require(LandRequestMapping[_requestId].sellerId==msg.sender);\r\n        LandRequestMapping[_requestId].requestStatus=reqStatus.rejected;\r\n    }\r\n\r\n    function requesteStatus(uint id) public view returns(bool)\r\n    {\r\n        return LandRequestMapping[id].isPaymentDone;\r\n    }\r\n\r\n    function landPrice(uint id) public view returns(uint)\r\n    {\r\n        return lands[id].landPrice;\r\n    }\r\n    function makePayment(uint _requestId) public payable\r\n    {\r\n        require(LandRequestMapping[_requestId].buyerId==msg.sender && LandRequestMapping[_requestId].requestStatus==reqStatus.accepted);\r\n\r\n        LandRequestMapping[_requestId].requestStatus=reqStatus.paymentdone;\r\n        //LandRequestMapping[_requestId].sellerId.transfer(lands[LandRequestMapping[_requestId].landId].landPrice);\r\n        //lands[LandRequestMapping[_requestId].landId].ownerAddress.transfer(lands[LandRequestMapping[_requestId].landId].landPrice);\r\n        lands[LandRequestMapping[_requestId].landId].ownerAddress.transfer(msg.value);\r\n        LandRequestMapping[_requestId].isPaymentDone=true;\r\n        paymentDoneList[1].push(_requestId);\r\n    }\r\n\r\n    function returnPaymentDoneList() public view returns(uint[] memory)\r\n    {\r\n        return paymentDoneList[1];\r\n    }\r\n\r\n    function makePaymentTestFun(address payable _reveiver) public payable\r\n    {\r\n        _reveiver.transfer(msg.value);\r\n    }\r\n}",
  "sourcePath": "P:\\Blockchain-Energy-Trading\\contracts\\landContrat.sol",
  "compiler": {
    "name": "solc",
    "version": "0.6.12+commit.27d51765.Emscripten.clang"
  },
  "schemaVersion": "3.4.12",
  "updatedAt": "2023-04-19T03:21:37.842Z",
  "networkType": "ethereum",
  "devdoc": {
    "kind": "dev",
    "methods": {},
    "version": 1
  },
  "userdoc": {
    "kind": "user",
    "methods": {},
    "version": 1
  }
}